{
  "contractName": "Item",
  "abi": [
    {
      "inputs": [
        {
          "internalType": "uint8",
          "name": "maxTransactions",
          "type": "uint8"
        },
        {
          "internalType": "uint8",
          "name": "increasePercentage",
          "type": "uint8"
        }
      ],
      "stateMutability": "nonpayable",
      "type": "constructor"
    },
    {
      "inputs": [
        {
          "internalType": "address",
          "name": "sender",
          "type": "address"
        },
        {
          "internalType": "uint256",
          "name": "tokenId",
          "type": "uint256"
        },
        {
          "internalType": "address",
          "name": "owner",
          "type": "address"
        }
      ],
      "name": "ERC721IncorrectOwner",
      "type": "error"
    },
    {
      "inputs": [
        {
          "internalType": "address",
          "name": "operator",
          "type": "address"
        },
        {
          "internalType": "uint256",
          "name": "tokenId",
          "type": "uint256"
        }
      ],
      "name": "ERC721InsufficientApproval",
      "type": "error"
    },
    {
      "inputs": [
        {
          "internalType": "address",
          "name": "approver",
          "type": "address"
        }
      ],
      "name": "ERC721InvalidApprover",
      "type": "error"
    },
    {
      "inputs": [
        {
          "internalType": "address",
          "name": "operator",
          "type": "address"
        }
      ],
      "name": "ERC721InvalidOperator",
      "type": "error"
    },
    {
      "inputs": [
        {
          "internalType": "address",
          "name": "owner",
          "type": "address"
        }
      ],
      "name": "ERC721InvalidOwner",
      "type": "error"
    },
    {
      "inputs": [
        {
          "internalType": "address",
          "name": "receiver",
          "type": "address"
        }
      ],
      "name": "ERC721InvalidReceiver",
      "type": "error"
    },
    {
      "inputs": [
        {
          "internalType": "address",
          "name": "sender",
          "type": "address"
        }
      ],
      "name": "ERC721InvalidSender",
      "type": "error"
    },
    {
      "inputs": [
        {
          "internalType": "uint256",
          "name": "tokenId",
          "type": "uint256"
        }
      ],
      "name": "ERC721NonexistentToken",
      "type": "error"
    },
    {
      "inputs": [
        {
          "internalType": "address",
          "name": "owner",
          "type": "address"
        }
      ],
      "name": "OwnableInvalidOwner",
      "type": "error"
    },
    {
      "inputs": [
        {
          "internalType": "address",
          "name": "account",
          "type": "address"
        }
      ],
      "name": "OwnableUnauthorizedAccount",
      "type": "error"
    },
    {
      "inputs": [
        {
          "internalType": "address",
          "name": "account",
          "type": "address"
        }
      ],
      "name": "OwnerUnauthorizedAccount",
      "type": "error"
    },
    {
      "anonymous": false,
      "inputs": [
        {
          "indexed": true,
          "internalType": "address",
          "name": "owner",
          "type": "address"
        },
        {
          "indexed": true,
          "internalType": "address",
          "name": "approved",
          "type": "address"
        },
        {
          "indexed": true,
          "internalType": "uint256",
          "name": "tokenId",
          "type": "uint256"
        }
      ],
      "name": "Approval",
      "type": "event"
    },
    {
      "anonymous": false,
      "inputs": [
        {
          "indexed": true,
          "internalType": "address",
          "name": "owner",
          "type": "address"
        },
        {
          "indexed": true,
          "internalType": "address",
          "name": "operator",
          "type": "address"
        },
        {
          "indexed": false,
          "internalType": "bool",
          "name": "approved",
          "type": "bool"
        }
      ],
      "name": "ApprovalForAll",
      "type": "event"
    },
    {
      "anonymous": false,
      "inputs": [
        {
          "indexed": true,
          "internalType": "uint256",
          "name": "tokenId",
          "type": "uint256"
        }
      ],
      "name": "ItemLocked",
      "type": "event"
    },
    {
      "anonymous": false,
      "inputs": [
        {
          "indexed": true,
          "internalType": "address",
          "name": "previousOwner",
          "type": "address"
        },
        {
          "indexed": true,
          "internalType": "address",
          "name": "newOwner",
          "type": "address"
        }
      ],
      "name": "OwnershipTransferred",
      "type": "event"
    },
    {
      "anonymous": false,
      "inputs": [
        {
          "indexed": true,
          "internalType": "address",
          "name": "from",
          "type": "address"
        },
        {
          "indexed": true,
          "internalType": "address",
          "name": "to",
          "type": "address"
        },
        {
          "indexed": true,
          "internalType": "uint256",
          "name": "tokenId",
          "type": "uint256"
        }
      ],
      "name": "Transfer",
      "type": "event"
    },
    {
      "anonymous": false,
      "inputs": [
        {
          "indexed": true,
          "internalType": "uint256",
          "name": "tokenId",
          "type": "uint256"
        },
        {
          "indexed": false,
          "internalType": "uint256",
          "name": "newValue",
          "type": "uint256"
        }
      ],
      "name": "ValueIncreased",
      "type": "event"
    },
    {
      "inputs": [
        {
          "internalType": "address",
          "name": "",
          "type": "address"
        },
        {
          "internalType": "uint256",
          "name": "",
          "type": "uint256"
        }
      ],
      "name": "_memberTokens",
      "outputs": [
        {
          "internalType": "uint256",
          "name": "",
          "type": "uint256"
        }
      ],
      "stateMutability": "view",
      "type": "function",
      "constant": true
    },
    {
      "inputs": [
        {
          "internalType": "uint256",
          "name": "",
          "type": "uint256"
        }
      ],
      "name": "_tokens",
      "outputs": [
        {
          "internalType": "string",
          "name": "uri",
          "type": "string"
        },
        {
          "internalType": "uint256",
          "name": "value",
          "type": "uint256"
        },
        {
          "internalType": "uint8",
          "name": "transactionsLeft",
          "type": "uint8"
        }
      ],
      "stateMutability": "view",
      "type": "function",
      "constant": true
    },
    {
      "inputs": [
        {
          "internalType": "address",
          "name": "to",
          "type": "address"
        },
        {
          "internalType": "uint256",
          "name": "tokenId",
          "type": "uint256"
        }
      ],
      "name": "approve",
      "outputs": [],
      "stateMutability": "nonpayable",
      "type": "function"
    },
    {
      "inputs": [
        {
          "internalType": "address",
          "name": "owner",
          "type": "address"
        }
      ],
      "name": "balanceOf",
      "outputs": [
        {
          "internalType": "uint256",
          "name": "",
          "type": "uint256"
        }
      ],
      "stateMutability": "view",
      "type": "function",
      "constant": true
    },
    {
      "inputs": [
        {
          "internalType": "uint256",
          "name": "tokenId",
          "type": "uint256"
        }
      ],
      "name": "burn",
      "outputs": [],
      "stateMutability": "nonpayable",
      "type": "function"
    },
    {
      "inputs": [
        {
          "internalType": "uint256",
          "name": "tokenId",
          "type": "uint256"
        }
      ],
      "name": "getApproved",
      "outputs": [
        {
          "internalType": "address",
          "name": "",
          "type": "address"
        }
      ],
      "stateMutability": "view",
      "type": "function",
      "constant": true
    },
    {
      "inputs": [
        {
          "internalType": "address",
          "name": "owner",
          "type": "address"
        },
        {
          "internalType": "address",
          "name": "operator",
          "type": "address"
        }
      ],
      "name": "isApprovedForAll",
      "outputs": [
        {
          "internalType": "bool",
          "name": "",
          "type": "bool"
        }
      ],
      "stateMutability": "view",
      "type": "function",
      "constant": true
    },
    {
      "inputs": [],
      "name": "name",
      "outputs": [
        {
          "internalType": "string",
          "name": "",
          "type": "string"
        }
      ],
      "stateMutability": "view",
      "type": "function",
      "constant": true
    },
    {
      "inputs": [],
      "name": "owner",
      "outputs": [
        {
          "internalType": "address",
          "name": "",
          "type": "address"
        }
      ],
      "stateMutability": "view",
      "type": "function",
      "constant": true
    },
    {
      "inputs": [
        {
          "internalType": "uint256",
          "name": "tokenId",
          "type": "uint256"
        }
      ],
      "name": "ownerOf",
      "outputs": [
        {
          "internalType": "address",
          "name": "",
          "type": "address"
        }
      ],
      "stateMutability": "view",
      "type": "function",
      "constant": true
    },
    {
      "inputs": [],
      "name": "renounceOwnership",
      "outputs": [],
      "stateMutability": "nonpayable",
      "type": "function"
    },
    {
      "inputs": [
        {
          "internalType": "address",
          "name": "from",
          "type": "address"
        },
        {
          "internalType": "address",
          "name": "to",
          "type": "address"
        },
        {
          "internalType": "uint256",
          "name": "tokenId",
          "type": "uint256"
        }
      ],
      "name": "safeTransferFrom",
      "outputs": [],
      "stateMutability": "nonpayable",
      "type": "function"
    },
    {
      "inputs": [
        {
          "internalType": "address",
          "name": "from",
          "type": "address"
        },
        {
          "internalType": "address",
          "name": "to",
          "type": "address"
        },
        {
          "internalType": "uint256",
          "name": "tokenId",
          "type": "uint256"
        },
        {
          "internalType": "bytes",
          "name": "data",
          "type": "bytes"
        }
      ],
      "name": "safeTransferFrom",
      "outputs": [],
      "stateMutability": "nonpayable",
      "type": "function"
    },
    {
      "inputs": [
        {
          "internalType": "address",
          "name": "operator",
          "type": "address"
        },
        {
          "internalType": "bool",
          "name": "approved",
          "type": "bool"
        }
      ],
      "name": "setApprovalForAll",
      "outputs": [],
      "stateMutability": "nonpayable",
      "type": "function"
    },
    {
      "inputs": [
        {
          "internalType": "bytes4",
          "name": "interfaceId",
          "type": "bytes4"
        }
      ],
      "name": "supportsInterface",
      "outputs": [
        {
          "internalType": "bool",
          "name": "",
          "type": "bool"
        }
      ],
      "stateMutability": "view",
      "type": "function",
      "constant": true
    },
    {
      "inputs": [],
      "name": "symbol",
      "outputs": [
        {
          "internalType": "string",
          "name": "",
          "type": "string"
        }
      ],
      "stateMutability": "view",
      "type": "function",
      "constant": true
    },
    {
      "inputs": [
        {
          "internalType": "uint256",
          "name": "tokenId",
          "type": "uint256"
        }
      ],
      "name": "tokenURI",
      "outputs": [
        {
          "internalType": "string",
          "name": "",
          "type": "string"
        }
      ],
      "stateMutability": "view",
      "type": "function",
      "constant": true
    },
    {
      "inputs": [
        {
          "internalType": "address",
          "name": "newOwner",
          "type": "address"
        }
      ],
      "name": "transferOwnership",
      "outputs": [],
      "stateMutability": "nonpayable",
      "type": "function"
    },
    {
      "inputs": [],
      "name": "getMyTokens",
      "outputs": [
        {
          "internalType": "uint256[]",
          "name": "",
          "type": "uint256[]"
        }
      ],
      "stateMutability": "view",
      "type": "function",
      "constant": true
    },
    {
      "inputs": [
        {
          "internalType": "uint256",
          "name": "tokenId",
          "type": "uint256"
        }
      ],
      "name": "getMetadata",
      "outputs": [
        {
          "components": [
            {
              "internalType": "string",
              "name": "uri",
              "type": "string"
            },
            {
              "internalType": "uint256",
              "name": "value",
              "type": "uint256"
            },
            {
              "internalType": "address[]",
              "name": "owners",
              "type": "address[]"
            },
            {
              "internalType": "uint8",
              "name": "transactionsLeft",
              "type": "uint8"
            }
          ],
          "internalType": "struct ItemMetadata",
          "name": "",
          "type": "tuple"
        }
      ],
      "stateMutability": "view",
      "type": "function",
      "constant": true
    },
    {
      "inputs": [
        {
          "internalType": "uint256",
          "name": "tokenId",
          "type": "uint256"
        }
      ],
      "name": "getValue",
      "outputs": [
        {
          "internalType": "uint256",
          "name": "",
          "type": "uint256"
        }
      ],
      "stateMutability": "view",
      "type": "function",
      "constant": true
    },
    {
      "inputs": [
        {
          "internalType": "uint256",
          "name": "tokenId",
          "type": "uint256"
        }
      ],
      "name": "hasTransactionsLeft",
      "outputs": [
        {
          "internalType": "bool",
          "name": "",
          "type": "bool"
        }
      ],
      "stateMutability": "view",
      "type": "function",
      "constant": true
    },
    {
      "inputs": [
        {
          "internalType": "address",
          "name": "from",
          "type": "address"
        },
        {
          "internalType": "address",
          "name": "to",
          "type": "address"
        },
        {
          "internalType": "uint256",
          "name": "tokenId",
          "type": "uint256"
        }
      ],
      "name": "transferFrom",
      "outputs": [],
      "stateMutability": "nonpayable",
      "type": "function"
    },
    {
      "inputs": [
        {
          "internalType": "address",
          "name": "to",
          "type": "address"
        },
        {
          "internalType": "string",
          "name": "uri",
          "type": "string"
        }
      ],
      "name": "safeMint",
      "outputs": [],
      "stateMutability": "nonpayable",
      "type": "function"
    }
  ],
  "bytecode": "0x60806040523480156200001157600080fd5b506040516200437d3803806200437d83398181016040528101906200003791906200029e565b620000476200018d60201b60201c565b6040518060400160405280600481526020017f4974656d000000000000000000000000000000000000000000000000000000008152506040518060400160405280600381526020017f49544d00000000000000000000000000000000000000000000000000000000008152508160009081620000c491906200055f565b508060019081620000d691906200055f565b505050600073ffffffffffffffffffffffffffffffffffffffff168173ffffffffffffffffffffffffffffffffffffffff16036200014e5760006040517f1e4fbdf70000000000000000000000000000000000000000000000000000000081526004016200014591906200068b565b60405180910390fd5b6200015f816200019560201b60201c565b5081600860006101000a81548160ff021916908360ff1602179055508060ff166009819055505050620006a8565b600033905090565b6000600660009054906101000a900473ffffffffffffffffffffffffffffffffffffffff16905081600660006101000a81548173ffffffffffffffffffffffffffffffffffffffff021916908373ffffffffffffffffffffffffffffffffffffffff1602179055508173ffffffffffffffffffffffffffffffffffffffff168173ffffffffffffffffffffffffffffffffffffffff167f8be0079c531659141344cd1fd0a4f28419497f9722a3daafe3b4186f6b6457e060405160405180910390a35050565b600080fd5b600060ff82169050919050565b620002788162000260565b81146200028457600080fd5b50565b60008151905062000298816200026d565b92915050565b60008060408385031215620002b857620002b76200025b565b5b6000620002c88582860162000287565b9250506020620002db8582860162000287565b9150509250929050565b600081519050919050565b7f4e487b7100000000000000000000000000000000000000000000000000000000600052604160045260246000fd5b7f4e487b7100000000000000000000000000000000000000000000000000000000600052602260045260246000fd5b600060028204905060018216806200036757607f821691505b6020821081036200037d576200037c6200031f565b5b50919050565b60008190508160005260206000209050919050565b60006020601f8301049050919050565b600082821b905092915050565b600060088302620003e77fffffffffffffffffffffffffffffffffffffffffffffffffffffffffffffffff82620003a8565b620003f38683620003a8565b95508019841693508086168417925050509392505050565b6000819050919050565b6000819050919050565b6000620004406200043a62000434846200040b565b62000415565b6200040b565b9050919050565b6000819050919050565b6200045c836200041f565b620004746200046b8262000447565b848454620003b5565b825550505050565b600090565b6200048b6200047c565b6200049881848462000451565b505050565b5b81811015620004c057620004b460008262000481565b6001810190506200049e565b5050565b601f8211156200050f57620004d98162000383565b620004e48462000398565b81016020851015620004f4578190505b6200050c620005038562000398565b8301826200049d565b50505b505050565b600082821c905092915050565b6000620005346000198460080262000514565b1980831691505092915050565b60006200054f838362000521565b9150826002028217905092915050565b6200056a82620002e5565b67ffffffffffffffff811115620005865762000585620002f0565b5b6200059282546200034e565b6200059f828285620004c4565b600060209050601f831160018114620005d75760008415620005c2578287015190505b620005ce858262000541565b8655506200063e565b601f198416620005e78662000383565b60005b828110156200061157848901518255600182019150602085019450602081019050620005ea565b868310156200063157848901516200062d601f89168262000521565b8355505b6001600288020188555050505b505050505050565b600073ffffffffffffffffffffffffffffffffffffffff82169050919050565b6000620006738262000646565b9050919050565b620006858162000666565b82525050565b6000602082019050620006a260008301846200067a565b92915050565b613cc580620006b86000396000f3fe608060405234801561001057600080fd5b50600436106101585760003560e01c806370a08231116100c3578063b88d4fde1161007c578063b88d4fde146103eb578063c87b56dd14610407578063d204c45e14610437578063e985e9c514610453578063ed70554d14610483578063f2fde38b146104b557610158565b806370a0823114610329578063715018a6146103595780638da5cb5b1461036357806395d89b4114610381578063a22cb4651461039f578063a574cea4146103bb57610158565b80630ff4c916116101155780630ff4c9161461025757806323b872dd1461028757806342842e0e146102a357806342966c68146102bf5780635b3b136a146102db5780636352211e146102f957610158565b806301ffc9a71461015d57806306fdde031461018d578063081812fc146101ab578063095a48f6146101db578063095ea7b31461020b5780630d54ea3814610227575b600080fd5b61017760048036038101906101729190612824565b6104d1565b604051610184919061286c565b60405180910390f35b6101956105b3565b6040516101a29190612917565b60405180910390f35b6101c560048036038101906101c0919061296f565b610645565b6040516101d291906129dd565b60405180910390f35b6101f560048036038101906101f0919061296f565b610661565b604051610202919061286c565b60405180910390f35b61022560048036038101906102209190612a24565b610693565b005b610241600480360381019061023c9190612a24565b6106a9565b60405161024e9190612a73565b60405180910390f35b610271600480360381019061026c919061296f565b6106da565b60405161027e9190612a73565b60405180910390f35b6102a1600480360381019061029c9190612a8e565b6106fa565b005b6102bd60048036038101906102b89190612a8e565b610b06565b005b6102d960048036038101906102d4919061296f565b610b26565b005b6102e3610b3d565b6040516102f09190612b9f565b60405180910390f35b610313600480360381019061030e919061296f565b610bd9565b60405161032091906129dd565b60405180910390f35b610343600480360381019061033e9190612bc1565b610beb565b6040516103509190612a73565b60405180910390f35b610361610ca5565b005b61036b610cb9565b60405161037891906129dd565b60405180910390f35b610389610ce3565b6040516103969190612917565b60405180910390f35b6103b960048036038101906103b49190612c1a565b610d75565b005b6103d560048036038101906103d0919061296f565b610d8b565b6040516103e29190612de8565b60405180910390f35b61040560048036038101906104009190612f3f565b610eff565b005b610421600480360381019061041c919061296f565b610f1c565b60405161042e9190612917565b60405180910390f35b610451600480360381019061044c9190613063565b610f85565b005b61046d600480360381019061046891906130bf565b611164565b60405161047a919061286c565b60405180910390f35b61049d6004803603810190610498919061296f565b6111f8565b6040516104ac9392919061310e565b60405180910390f35b6104cf60048036038101906104ca9190612bc1565b6112b7565b005b60007f80ac58cd000000000000000000000000000000000000000000000000000000007bffffffffffffffffffffffffffffffffffffffffffffffffffffffff1916827bffffffffffffffffffffffffffffffffffffffffffffffffffffffff1916148061059c57507f5b5e139f000000000000000000000000000000000000000000000000000000007bffffffffffffffffffffffffffffffffffffffffffffffffffffffff1916827bffffffffffffffffffffffffffffffffffffffffffffffffffffffff1916145b806105ac57506105ab8261133d565b5b9050919050565b6060600080546105c29061317b565b80601f01602080910402602001604051908101604052809291908181526020018280546105ee9061317b565b801561063b5780601f106106105761010080835404028352916020019161063b565b820191906000526020600020905b81548152906001019060200180831161061e57829003601f168201915b5050505050905090565b6000610650826113a7565b5061065a8261142f565b9050919050565b600080600b600084815260200190815260200160002060030160009054906101000a900460ff1660ff16119050919050565b6106a582826106a061146c565b611474565b5050565b600a60205281600052604060002081815481106106c557600080fd5b90600052602060002001600091509150505481565b6000600b6000838152602001908152602001600020600101549050919050565b6107048184611486565b610743576040517f08c379a000000000000000000000000000000000000000000000000000000000815260040161073a906131f8565b60405180910390fd5b61074c81610661565b61078b576040517f08c379a000000000000000000000000000000000000000000000000000000000815260040161078290613264565b60405180910390fd5b6107958183611548565b156107d5576040517f08c379a00000000000000000000000000000000000000000000000000000000081526004016107cc906132f6565b60405180910390fd5b6000600b600083815260200190815260200160002090506000606460095483600101546108029190613345565b61080c91906133b6565b9050600081836001015461082091906133e7565b905082600201869080600181540180825580915050600190039060005260206000200160009091909190916101000a81548173ffffffffffffffffffffffffffffffffffffffff021916908373ffffffffffffffffffffffffffffffffffffffff16021790555082600301600081819054906101000a900460ff16809291906108a89061341b565b91906101000a81548160ff021916908360ff16021790555050808360010181905550600a60008673ffffffffffffffffffffffffffffffffffffffff1673ffffffffffffffffffffffffffffffffffffffff16815260200190815260200160002084908060018154018082558091505060019003906000526020600020016000909190919091505573__Utils_________________________________63f7277c6f600a60008973ffffffffffffffffffffffffffffffffffffffff1673ffffffffffffffffffffffffffffffffffffffff168152602001908152602001600020866040518363ffffffff1660e01b81526004016109a7929190613561565b600060405180830381865af41580156109c4573d6000803e3d6000fd5b505050506040513d6000823e3d601f19601f820116820180604052508101906109ed919061366e565b600a60008873ffffffffffffffffffffffffffffffffffffffff1673ffffffffffffffffffffffffffffffffffffffff1681526020019081526020016000209080519060200190610a3f929190612647565b5082600b600086815260200190815260200160002060008201816000019081610a689190613879565b50600182015481600101556002820181600201908054610a89929190612694565b506003820160009054906101000a900460ff168160030160006101000a81548160ff021916908360ff160217905550905050610ac686868661166f565b837fad5ea66d8ec34c236dcfcdd582ee7ed9a1c4eca55c538f1db5ab414df147a6c582604051610af69190612a73565b60405180910390a2505050505050565b610b2183838360405180602001604052806000815250610eff565b505050565b610b39600082610b3461146c565b611771565b5050565b6060600a6000610b4b61146c565b73ffffffffffffffffffffffffffffffffffffffff1673ffffffffffffffffffffffffffffffffffffffff168152602001908152602001600020805480602002602001604051908101604052809291908181526020018280548015610bcf57602002820191906000526020600020905b815481526020019060010190808311610bbb575b5050505050905090565b6000610be4826113a7565b9050919050565b60008073ffffffffffffffffffffffffffffffffffffffff168273ffffffffffffffffffffffffffffffffffffffff1603610c5e5760006040517f89c62b64000000000000000000000000000000000000000000000000000000008152600401610c5591906129dd565b60405180910390fd5b600360008373ffffffffffffffffffffffffffffffffffffffff1673ffffffffffffffffffffffffffffffffffffffff168152602001908152602001600020549050919050565b610cad61198b565b610cb76000611a12565b565b6000600660009054906101000a900473ffffffffffffffffffffffffffffffffffffffff16905090565b606060018054610cf29061317b565b80601f0160208091040260200160405190810160405280929190818152602001828054610d1e9061317b565b8015610d6b5780601f10610d4057610100808354040283529160200191610d6b565b820191906000526020600020905b815481529060010190602001808311610d4e57829003601f168201915b5050505050905090565b610d87610d8061146c565b8383611ad8565b5050565b610d936126e6565b600b6000838152602001908152602001600020604051806080016040529081600082018054610dc19061317b565b80601f0160208091040260200160405190810160405280929190818152602001828054610ded9061317b565b8015610e3a5780601f10610e0f57610100808354040283529160200191610e3a565b820191906000526020600020905b815481529060010190602001808311610e1d57829003601f168201915b505050505081526020016001820154815260200160028201805480602002602001604051908101604052809291908181526020018280548015610ed257602002820191906000526020600020905b8160009054906101000a900473ffffffffffffffffffffffffffffffffffffffff1673ffffffffffffffffffffffffffffffffffffffff1681526020019060010190808311610e88575b505050505081526020016003820160009054906101000a900460ff1660ff1660ff16815250509050919050565b610f0a8484846106fa565b610f1684848484611c47565b50505050565b6060610f27826113a7565b506000610f32611dfe565b90506000815111610f525760405180602001604052806000815250610f7d565b80610f5c84611e15565b604051602001610f6d92919061399d565b6040516020818303038152906040525b915050919050565b610f8d61198b565b610fcb6040518060400160405280600e81526020017f4974656d3a3a736166654d696e74000000000000000000000000000000000000815250611ee3565b610fd482611f7c565b610fdd81611ee3565b600060076000815480929190610ff2906139c1565b9190505590506110028382612015565b6000604051806080016040528084815260200160008152602001600067ffffffffffffffff81111561103757611036612e14565b5b6040519080825280602002602001820160405280156110655781602001602082028036833780820191505090505b508152602001600860009054906101000a900460ff1660ff16815250905080600b600084815260200190815260200160002060008201518160000190816110ac9190613a09565b506020820151816001015560408201518160020190805190602001906110d3929190612711565b5060608201518160030160006101000a81548160ff021916908360ff160217905550905050600a60008573ffffffffffffffffffffffffffffffffffffffff1673ffffffffffffffffffffffffffffffffffffffff16815260200190815260200160002082908060018154018082558091505060019003906000526020600020016000909190919091505550505050565b6000600560008473ffffffffffffffffffffffffffffffffffffffff1673ffffffffffffffffffffffffffffffffffffffff16815260200190815260200160002060008373ffffffffffffffffffffffffffffffffffffffff1673ffffffffffffffffffffffffffffffffffffffff16815260200190815260200160002060009054906101000a900460ff16905092915050565b600b60205280600052604060002060009150905080600001805461121b9061317b565b80601f01602080910402602001604051908101604052809291908181526020018280546112479061317b565b80156112945780601f1061126957610100808354040283529160200191611294565b820191906000526020600020905b81548152906001019060200180831161127757829003601f168201915b5050505050908060010154908060030160009054906101000a900460ff16905083565b6112bf61198b565b600073ffffffffffffffffffffffffffffffffffffffff168173ffffffffffffffffffffffffffffffffffffffff16036113315760006040517f1e4fbdf700000000000000000000000000000000000000000000000000000000815260040161132891906129dd565b60405180910390fd5b61133a81611a12565b50565b60007f01ffc9a7000000000000000000000000000000000000000000000000000000007bffffffffffffffffffffffffffffffffffffffffffffffffffffffff1916827bffffffffffffffffffffffffffffffffffffffffffffffffffffffff1916149050919050565b6000806113b383612033565b9050600073ffffffffffffffffffffffffffffffffffffffff168173ffffffffffffffffffffffffffffffffffffffff160361142657826040517f7e27328900000000000000000000000000000000000000000000000000000000815260040161141d9190612a73565b60405180910390fd5b80915050919050565b60006004600083815260200190815260200160002060009054906101000a900473ffffffffffffffffffffffffffffffffffffffff169050919050565b600033905090565b6114818383836001612070565b505050565b600073__Utils_________________________________63b7652da1600a60008573ffffffffffffffffffffffffffffffffffffffff1673ffffffffffffffffffffffffffffffffffffffff168152602001908152602001600020856040518363ffffffff1660e01b81526004016114ff929190613561565b602060405180830381865af415801561151c573d6000803e3d6000fd5b505050506040513d601f19601f820116820180604052508101906115409190613af0565b905092915050565b600080600090506000600b60008681526020019081526020016000206002018054806020026020016040519081016040528092919081815260200182805480156115e757602002820191906000526020600020905b8160009054906101000a900473ffffffffffffffffffffffffffffffffffffffff1673ffffffffffffffffffffffffffffffffffffffff168152602001906001019080831161159d575b5050505050905060005b8151811015611663578473ffffffffffffffffffffffffffffffffffffffff1682828151811061162457611623613b1d565b5b602002602001015173ffffffffffffffffffffffffffffffffffffffff16036116505760019250611663565b808061165b906139c1565b9150506115f1565b50819250505092915050565b600073ffffffffffffffffffffffffffffffffffffffff168273ffffffffffffffffffffffffffffffffffffffff16036116e15760006040517f64a0ae920000000000000000000000000000000000000000000000000000000081526004016116d891906129dd565b60405180910390fd5b60006116f583836116f061146c565b611771565b90508373ffffffffffffffffffffffffffffffffffffffff168173ffffffffffffffffffffffffffffffffffffffff161461176b578382826040517f64283d7b00000000000000000000000000000000000000000000000000000000815260040161176293929190613b4c565b60405180910390fd5b50505050565b60008061177d84612033565b9050600073ffffffffffffffffffffffffffffffffffffffff168373ffffffffffffffffffffffffffffffffffffffff16146117bf576117be818486612235565b5b600073ffffffffffffffffffffffffffffffffffffffff168173ffffffffffffffffffffffffffffffffffffffff161461185057611801600085600080612070565b6001600360008373ffffffffffffffffffffffffffffffffffffffff1673ffffffffffffffffffffffffffffffffffffffff168152602001908152602001600020600082825403925050819055505b600073ffffffffffffffffffffffffffffffffffffffff168573ffffffffffffffffffffffffffffffffffffffff16146118d3576001600360008773ffffffffffffffffffffffffffffffffffffffff1673ffffffffffffffffffffffffffffffffffffffff168152602001908152602001600020600082825401925050819055505b846002600086815260200190815260200160002060006101000a81548173ffffffffffffffffffffffffffffffffffffffff021916908373ffffffffffffffffffffffffffffffffffffffff160217905550838573ffffffffffffffffffffffffffffffffffffffff168273ffffffffffffffffffffffffffffffffffffffff167fddf252ad1be2c89b69c2b068fc378daa952ba7f163c4a11628f55a4df523b3ef60405160405180910390a4809150509392505050565b61199361146c565b73ffffffffffffffffffffffffffffffffffffffff166119b1610cb9565b73ffffffffffffffffffffffffffffffffffffffff1614611a10576119d461146c565b6040517f118cdaa7000000000000000000000000000000000000000000000000000000008152600401611a0791906129dd565b60405180910390fd5b565b6000600660009054906101000a900473ffffffffffffffffffffffffffffffffffffffff16905081600660006101000a81548173ffffffffffffffffffffffffffffffffffffffff021916908373ffffffffffffffffffffffffffffffffffffffff1602179055508173ffffffffffffffffffffffffffffffffffffffff168173ffffffffffffffffffffffffffffffffffffffff167f8be0079c531659141344cd1fd0a4f28419497f9722a3daafe3b4186f6b6457e060405160405180910390a35050565b600073ffffffffffffffffffffffffffffffffffffffff168273ffffffffffffffffffffffffffffffffffffffff1603611b4957816040517f5b08ba18000000000000000000000000000000000000000000000000000000008152600401611b4091906129dd565b60405180910390fd5b80600560008573ffffffffffffffffffffffffffffffffffffffff1673ffffffffffffffffffffffffffffffffffffffff16815260200190815260200160002060008473ffffffffffffffffffffffffffffffffffffffff1673ffffffffffffffffffffffffffffffffffffffff16815260200190815260200160002060006101000a81548160ff0219169083151502179055508173ffffffffffffffffffffffffffffffffffffffff168373ffffffffffffffffffffffffffffffffffffffff167f17307eab39ab6107e8899845ad3d59bd9653f200f220920489ca2b5937696c3183604051611c3a919061286c565b60405180910390a3505050565b60008373ffffffffffffffffffffffffffffffffffffffff163b1115611df8578273ffffffffffffffffffffffffffffffffffffffff1663150b7a02611c8b61146c565b8685856040518563ffffffff1660e01b8152600401611cad9493929190613bd8565b6020604051808303816000875af1925050508015611ce957506040513d601f19601f82011682018060405250810190611ce69190613c39565b60015b611d6d573d8060008114611d19576040519150601f19603f3d011682016040523d82523d6000602084013e611d1e565b606091505b506000815103611d6557836040517f64a0ae92000000000000000000000000000000000000000000000000000000008152600401611d5c91906129dd565b60405180910390fd5b805181602001fd5b63150b7a0260e01b7bffffffffffffffffffffffffffffffffffffffffffffffffffffffff1916817bffffffffffffffffffffffffffffffffffffffffffffffffffffffff191614611df657836040517f64a0ae92000000000000000000000000000000000000000000000000000000008152600401611ded91906129dd565b60405180910390fd5b505b50505050565b606060405180602001604052806000815250905090565b606060006001611e24846122f9565b01905060008167ffffffffffffffff811115611e4357611e42612e14565b5b6040519080825280601f01601f191660200182016040528015611e755781602001600182028036833780820191505090505b509050600082602001820190505b600115611ed8578080600190039150507f3031323334353637383961626364656600000000000000000000000000000000600a86061a8153600a8581611ecc57611ecb613387565b5b04945060008503611e83575b819350505050919050565b611f7981604051602401611ef79190612917565b6040516020818303038152906040527f41304fac000000000000000000000000000000000000000000000000000000007bffffffffffffffffffffffffffffffffffffffffffffffffffffffff19166020820180517bffffffffffffffffffffffffffffffffffffffffffffffffffffffff838183161783525050505061244c565b50565b61201281604051602401611f9091906129dd565b6040516020818303038152906040527f2c2ecbc2000000000000000000000000000000000000000000000000000000007bffffffffffffffffffffffffffffffffffffffffffffffffffffffff19166020820180517bffffffffffffffffffffffffffffffffffffffffffffffffffffffff838183161783525050505061244c565b50565b61202f828260405180602001604052806000815250612471565b5050565b60006002600083815260200190815260200160002060009054906101000a900473ffffffffffffffffffffffffffffffffffffffff169050919050565b80806120a95750600073ffffffffffffffffffffffffffffffffffffffff168273ffffffffffffffffffffffffffffffffffffffff1614155b156121dd5760006120b9846113a7565b9050600073ffffffffffffffffffffffffffffffffffffffff168373ffffffffffffffffffffffffffffffffffffffff161415801561212457508273ffffffffffffffffffffffffffffffffffffffff168173ffffffffffffffffffffffffffffffffffffffff1614155b801561213757506121358184611164565b155b1561217957826040517fa9fbf51f00000000000000000000000000000000000000000000000000000000815260040161217091906129dd565b60405180910390fd5b81156121db57838573ffffffffffffffffffffffffffffffffffffffff168273ffffffffffffffffffffffffffffffffffffffff167f8c5be1e5ebec7d5bd14f71427d1e84f3dd0314c0f7b2291e5b200ac8c7c3b92560405160405180910390a45b505b836004600085815260200190815260200160002060006101000a81548173ffffffffffffffffffffffffffffffffffffffff021916908373ffffffffffffffffffffffffffffffffffffffff16021790555050505050565b61224083838361248d565b6122f457600073ffffffffffffffffffffffffffffffffffffffff168373ffffffffffffffffffffffffffffffffffffffff16036122b557806040517f7e2732890000000000000000000000000000000000000000000000000000000081526004016122ac9190612a73565b60405180910390fd5b81816040517f177e802f0000000000000000000000000000000000000000000000000000000081526004016122eb929190613c66565b60405180910390fd5b505050565b600080600090507a184f03e93ff9f4daa797ed6e38ed64bf6a1f0100000000000000008310612357577a184f03e93ff9f4daa797ed6e38ed64bf6a1f010000000000000000838161234d5761234c613387565b5b0492506040810190505b6d04ee2d6d415b85acef81000000008310612394576d04ee2d6d415b85acef8100000000838161238a57612389613387565b5b0492506020810190505b662386f26fc1000083106123c357662386f26fc1000083816123b9576123b8613387565b5b0492506010810190505b6305f5e10083106123ec576305f5e10083816123e2576123e1613387565b5b0492506008810190505b612710831061241157612710838161240757612406613387565b5b0492506004810190505b60648310612434576064838161242a57612429613387565b5b0492506002810190505b600a8310612443576001810190505b80915050919050565b60006a636f6e736f6c652e6c6f6790508151602083016000808383865afa5050505050565b61247b838361254e565b6124886000848484611c47565b505050565b60008073ffffffffffffffffffffffffffffffffffffffff168373ffffffffffffffffffffffffffffffffffffffff161415801561254557508273ffffffffffffffffffffffffffffffffffffffff168473ffffffffffffffffffffffffffffffffffffffff16148061250657506125058484611164565b5b8061254457508273ffffffffffffffffffffffffffffffffffffffff1661252c8361142f565b73ffffffffffffffffffffffffffffffffffffffff16145b5b90509392505050565b600073ffffffffffffffffffffffffffffffffffffffff168273ffffffffffffffffffffffffffffffffffffffff16036125c05760006040517f64a0ae920000000000000000000000000000000000000000000000000000000081526004016125b791906129dd565b60405180910390fd5b60006125ce83836000611771565b9050600073ffffffffffffffffffffffffffffffffffffffff168173ffffffffffffffffffffffffffffffffffffffff16146126425760006040517f73c6ac6e00000000000000000000000000000000000000000000000000000000815260040161263991906129dd565b60405180910390fd5b505050565b828054828255906000526020600020908101928215612683579160200282015b82811115612682578251825591602001919060010190612667565b5b509050612690919061279b565b5090565b8280548282559060005260206000209081019282156126d55760005260206000209182015b828111156126d45782548255916001019190600101906126b9565b5b5090506126e2919061279b565b5090565b6040518060800160405280606081526020016000815260200160608152602001600060ff1681525090565b82805482825590600052602060002090810192821561278a579160200282015b828111156127895782518260006101000a81548173ffffffffffffffffffffffffffffffffffffffff021916908373ffffffffffffffffffffffffffffffffffffffff16021790555091602001919060010190612731565b5b509050612797919061279b565b5090565b5b808211156127b457600081600090555060010161279c565b5090565b6000604051905090565b600080fd5b600080fd5b60007fffffffff0000000000000000000000000000000000000000000000000000000082169050919050565b612801816127cc565b811461280c57600080fd5b50565b60008135905061281e816127f8565b92915050565b60006020828403121561283a576128396127c2565b5b60006128488482850161280f565b91505092915050565b60008115159050919050565b61286681612851565b82525050565b6000602082019050612881600083018461285d565b92915050565b600081519050919050565b600082825260208201905092915050565b60005b838110156128c15780820151818401526020810190506128a6565b60008484015250505050565b6000601f19601f8301169050919050565b60006128e982612887565b6128f38185612892565b93506129038185602086016128a3565b61290c816128cd565b840191505092915050565b6000602082019050818103600083015261293181846128de565b905092915050565b6000819050919050565b61294c81612939565b811461295757600080fd5b50565b60008135905061296981612943565b92915050565b600060208284031215612985576129846127c2565b5b60006129938482850161295a565b91505092915050565b600073ffffffffffffffffffffffffffffffffffffffff82169050919050565b60006129c78261299c565b9050919050565b6129d7816129bc565b82525050565b60006020820190506129f260008301846129ce565b92915050565b612a01816129bc565b8114612a0c57600080fd5b50565b600081359050612a1e816129f8565b92915050565b60008060408385031215612a3b57612a3a6127c2565b5b6000612a4985828601612a0f565b9250506020612a5a8582860161295a565b9150509250929050565b612a6d81612939565b82525050565b6000602082019050612a886000830184612a64565b92915050565b600080600060608486031215612aa757612aa66127c2565b5b6000612ab586828701612a0f565b9350506020612ac686828701612a0f565b9250506040612ad78682870161295a565b9150509250925092565b600081519050919050565b600082825260208201905092915050565b6000819050602082019050919050565b612b1681612939565b82525050565b6000612b288383612b0d565b60208301905092915050565b6000602082019050919050565b6000612b4c82612ae1565b612b568185612aec565b9350612b6183612afd565b8060005b83811015612b92578151612b798882612b1c565b9750612b8483612b34565b925050600181019050612b65565b5085935050505092915050565b60006020820190508181036000830152612bb98184612b41565b905092915050565b600060208284031215612bd757612bd66127c2565b5b6000612be584828501612a0f565b91505092915050565b612bf781612851565b8114612c0257600080fd5b50565b600081359050612c1481612bee565b92915050565b60008060408385031215612c3157612c306127c2565b5b6000612c3f85828601612a0f565b9250506020612c5085828601612c05565b9150509250929050565b600082825260208201905092915050565b6000612c7682612887565b612c808185612c5a565b9350612c908185602086016128a3565b612c99816128cd565b840191505092915050565b600081519050919050565b600082825260208201905092915050565b6000819050602082019050919050565b612cd9816129bc565b82525050565b6000612ceb8383612cd0565b60208301905092915050565b6000602082019050919050565b6000612d0f82612ca4565b612d198185612caf565b9350612d2483612cc0565b8060005b83811015612d55578151612d3c8882612cdf565b9750612d4783612cf7565b925050600181019050612d28565b5085935050505092915050565b600060ff82169050919050565b612d7881612d62565b82525050565b60006080830160008301518482036000860152612d9b8282612c6b565b9150506020830151612db06020860182612b0d565b5060408301518482036040860152612dc88282612d04565b9150506060830151612ddd6060860182612d6f565b508091505092915050565b60006020820190508181036000830152612e028184612d7e565b905092915050565b600080fd5b600080fd5b7f4e487b7100000000000000000000000000000000000000000000000000000000600052604160045260246000fd5b612e4c826128cd565b810181811067ffffffffffffffff82111715612e6b57612e6a612e14565b5b80604052505050565b6000612e7e6127b8565b9050612e8a8282612e43565b919050565b600067ffffffffffffffff821115612eaa57612ea9612e14565b5b612eb3826128cd565b9050602081019050919050565b82818337600083830152505050565b6000612ee2612edd84612e8f565b612e74565b905082815260208101848484011115612efe57612efd612e0f565b5b612f09848285612ec0565b509392505050565b600082601f830112612f2657612f25612e0a565b5b8135612f36848260208601612ecf565b91505092915050565b60008060008060808587031215612f5957612f586127c2565b5b6000612f6787828801612a0f565b9450506020612f7887828801612a0f565b9350506040612f898782880161295a565b925050606085013567ffffffffffffffff811115612faa57612fa96127c7565b5b612fb687828801612f11565b91505092959194509250565b600067ffffffffffffffff821115612fdd57612fdc612e14565b5b612fe6826128cd565b9050602081019050919050565b600061300661300184612fc2565b612e74565b90508281526020810184848401111561302257613021612e0f565b5b61302d848285612ec0565b509392505050565b600082601f83011261304a57613049612e0a565b5b813561305a848260208601612ff3565b91505092915050565b6000806040838503121561307a576130796127c2565b5b600061308885828601612a0f565b925050602083013567ffffffffffffffff8111156130a9576130a86127c7565b5b6130b585828601613035565b9150509250929050565b600080604083850312156130d6576130d56127c2565b5b60006130e485828601612a0f565b92505060206130f585828601612a0f565b9150509250929050565b61310881612d62565b82525050565b6000606082019050818103600083015261312881866128de565b90506131376020830185612a64565b61314460408301846130ff565b949350505050565b7f4e487b7100000000000000000000000000000000000000000000000000000000600052602260045260246000fd5b6000600282049050600182168061319357607f821691505b6020821081036131a6576131a561314c565b5b50919050565b7f4f6e6c79206f776e65722063616e207472616e736665722069742e0000000000600082015250565b60006131e2601b83612892565b91506131ed826131ac565b602082019050919050565b60006020820190508181036000830152613211816131d5565b9050919050565b7f4974656d20686173206e6f207472616e73616374696f6e73206c6566742e0000600082015250565b600061324e601e83612892565b915061325982613218565b602082019050919050565b6000602082019050818103600083015261327d81613241565b9050919050565b7f4974656d2063616e6e6f742073656e64206261636b20746f206120707265766960008201527f6f7573206f776e65722e00000000000000000000000000000000000000000000602082015250565b60006132e0602a83612892565b91506132eb82613284565b604082019050919050565b6000602082019050818103600083015261330f816132d3565b9050919050565b7f4e487b7100000000000000000000000000000000000000000000000000000000600052601160045260246000fd5b600061335082612939565b915061335b83612939565b925082820261336981612939565b915082820484148315176133805761337f613316565b5b5092915050565b7f4e487b7100000000000000000000000000000000000000000000000000000000600052601260045260246000fd5b60006133c182612939565b91506133cc83612939565b9250826133dc576133db613387565b5b828204905092915050565b60006133f282612939565b91506133fd83612939565b925082820190508082111561341557613414613316565b5b92915050565b600061342682612d62565b91506000820361343957613438613316565b5b600182039050919050565b600081549050919050565b600082825260208201905092915050565b60008190508160005260206000209050919050565b61347e81612939565b82525050565b60006134908383613475565b60208301905092915050565b60008160001c9050919050565b6000819050919050565b60006134c66134c18361349c565b6134a9565b9050919050565b60006134d982546134b3565b9050919050565b6000600182019050919050565b60006134f882613444565b613502818561344f565b935061350d83613460565b8060005b8381101561354557613522826134cd565b61352c8882613484565b9750613537836134e0565b925050600181019050613511565b5085935050505092915050565b61355b81612939565b82525050565b6000604082019050818103600083015261357b81856134ed565b905061358a6020830184613552565b9392505050565b600067ffffffffffffffff8211156135ac576135ab612e14565b5b602082029050602081019050919050565b600080fd5b6000815190506135d181612943565b92915050565b60006135ea6135e584613591565b612e74565b9050808382526020820190506020840283018581111561360d5761360c6135bd565b5b835b81811015613636578061362288826135c2565b84526020840193505060208101905061360f565b5050509392505050565b600082601f83011261365557613654612e0a565b5b81516136658482602086016135d7565b91505092915050565b600060208284031215613684576136836127c2565b5b600082015167ffffffffffffffff8111156136a2576136a16127c7565b5b6136ae84828501613640565b91505092915050565b6000815490506136c68161317b565b9050919050565b60008190508160005260206000209050919050565b60006020601f8301049050919050565b600082821b905092915050565b60006008830261372f7fffffffffffffffffffffffffffffffffffffffffffffffffffffffffffffffff826136f2565b61373986836136f2565b95508019841693508086168417925050509392505050565b6000819050919050565b600061377661377161376c84612939565b613751565b612939565b9050919050565b6000819050919050565b6137908361375b565b6137a461379c8261377d565b8484546136ff565b825550505050565b600090565b6137b96137ac565b6137c4818484613787565b505050565b5b818110156137e8576137dd6000826137b1565b6001810190506137ca565b5050565b601f82111561382d576137fe816136cd565b613807846136e2565b81016020851015613816578190505b61382a613822856136e2565b8301826137c9565b50505b505050565b600082821c905092915050565b600061385060001984600802613832565b1980831691505092915050565b6000613869838361383f565b9150826002028217905092915050565b81810361388757505061395f565b613890826136b7565b67ffffffffffffffff8111156138a9576138a8612e14565b5b6138b3825461317b565b6138be8282856137ec565b6000601f8311600181146138ed57600084156138db578287015490505b6138e5858261385d565b865550613958565b601f1984166138fb876136cd565b9650613906866136cd565b60005b8281101561392e57848901548255600182019150600185019450602081019050613909565b8683101561394b5784890154613947601f89168261383f565b8355505b6001600288020188555050505b5050505050505b565b600081905092915050565b600061397782612887565b6139818185613961565b93506139918185602086016128a3565b80840191505092915050565b60006139a9828561396c565b91506139b5828461396c565b91508190509392505050565b60006139cc82612939565b91507fffffffffffffffffffffffffffffffffffffffffffffffffffffffffffffffff82036139fe576139fd613316565b5b600182019050919050565b613a1282612887565b67ffffffffffffffff811115613a2b57613a2a612e14565b5b613a35825461317b565b613a408282856137ec565b600060209050601f831160018114613a735760008415613a61578287015190505b613a6b858261385d565b865550613ad3565b601f198416613a81866136cd565b60005b82811015613aa957848901518255600182019150602085019450602081019050613a84565b86831015613ac65784890151613ac2601f89168261383f565b8355505b6001600288020188555050505b505050505050565b600081519050613aea81612bee565b92915050565b600060208284031215613b0657613b056127c2565b5b6000613b1484828501613adb565b91505092915050565b7f4e487b7100000000000000000000000000000000000000000000000000000000600052603260045260246000fd5b6000606082019050613b6160008301866129ce565b613b6e6020830185612a64565b613b7b60408301846129ce565b949350505050565b600081519050919050565b600082825260208201905092915050565b6000613baa82613b83565b613bb48185613b8e565b9350613bc48185602086016128a3565b613bcd816128cd565b840191505092915050565b6000608082019050613bed60008301876129ce565b613bfa60208301866129ce565b613c076040830185612a64565b8181036060830152613c198184613b9f565b905095945050505050565b600081519050613c33816127f8565b92915050565b600060208284031215613c4f57613c4e6127c2565b5b6000613c5d84828501613c24565b91505092915050565b6000604082019050613c7b60008301856129ce565b613c886020830184612a64565b939250505056fea26469706673582212208dd057c321552865213412e683bba05d9e136cf5abdcae6ce8702226ec49661b64736f6c63430008140033",
  "immutableReferences": {},
  "source": "// SPDX-License-Identifier: MIT\npragma solidity ^0.8.20;\n\nimport {ERC721} from \"@openzeppelin/contracts/token/ERC721/ERC721.sol\";\nimport {Ownable} from \"@openzeppelin/contracts/access/Ownable.sol\";\nimport {ERC721Burnable} from \"@openzeppelin/contracts/token/ERC721/extensions/ERC721Burnable.sol\";\nimport {ItemMetadata, Utils} from \"./Utils.sol\";\nimport {console} from \"@ganache/console.log/console.sol\";\n\ncontract Item is ERC721, ERC721Burnable, Ownable {\n    uint256 private _nextTokenId;\n    uint8 private _maxTransactions;\n    uint private _increasePercentage;\n    mapping(address => uint256[]) public _memberTokens;\n    mapping(uint256 => ItemMetadata) public _tokens;\n\n    event ValueIncreased(uint256 indexed tokenId, uint256 newValue);\n    event ItemLocked(uint256 indexed tokenId);\n\n    error OwnerUnauthorizedAccount(address account);\n\n    constructor(\n        uint8 maxTransactions,\n        uint8 increasePercentage\n    ) ERC721(\"Item\", \"ITM\") Ownable(_msgSender()) {\n        _maxTransactions = maxTransactions;\n        _increasePercentage = increasePercentage;\n    }\n    function getMyTokens() public view returns (uint256[] memory) {\n        return _memberTokens[_msgSender()];\n    }\n    function getMetadata(\n        uint256 tokenId\n    ) public view returns (ItemMetadata memory) {\n        return _tokens[tokenId];\n    }\n    function getValue(uint256 tokenId) public view returns (uint256) {\n        return _tokens[tokenId].value;\n    }\n    function hasTransactionsLeft(\n        uint256 tokenId\n    ) public view virtual returns (bool) {\n        return _tokens[tokenId].transactionsLeft > 0;\n    }\n    function transferFrom(\n        address from,\n        address to,\n        uint256 tokenId\n    ) public override {\n        require(_isTokenOwner(tokenId, from), \"Only owner can transfer it.\");\n        require(hasTransactionsLeft(tokenId), \"Item has no transactions left.\");\n        require(\n            !_wasOwner(tokenId, to),\n            \"Item cannot send back to a previous owner.\"\n        );\n\n        ItemMetadata storage metadata = _tokens[tokenId];\n        // TODO: check math functions\n        uint256 increaseAmount = (metadata.value * _increasePercentage) / 100;\n        uint256 newValue = metadata.value + increaseAmount;\n\n        metadata.owners.push(from);\n        metadata.transactionsLeft--;\n        metadata.value = newValue;\n\n        _memberTokens[to].push(tokenId);\n        _memberTokens[from] = Utils._removeItem(_memberTokens[from], tokenId);\n\n        _tokens[tokenId] = metadata;\n\n        super.transferFrom(from, to, tokenId);\n        emit ValueIncreased(tokenId, newValue);\n    }\n\n    function _wasOwner(\n        uint256 tokenId,\n        address addr\n    ) internal view virtual returns (bool) {\n        bool found = false;\n        address[] memory _owners = _tokens[tokenId].owners;\n        for (uint i = 0; i < _owners.length; i++) {\n            if (_owners[i] == addr) {\n                found = true;\n                break;\n            }\n        }\n        return found;\n    }\n    function _isTokenOwner(\n        uint256 tokenId,\n        address addr\n    ) internal view virtual returns (bool) {\n        return Utils._itemExist(_memberTokens[addr], tokenId);\n    }\n    function safeMint(address to, string memory uri) public onlyOwner {\n        console.log(\"Item::safeMint\");\n        console.logAddress(to);\n        console.log(uri);\n        uint256 tokenId = _nextTokenId++;\n\n        _safeMint(to, tokenId);\n        ItemMetadata memory data = ItemMetadata({\n            uri: uri,\n            value: 0,\n            owners: new address[](0),\n            transactionsLeft: _maxTransactions\n        });\n        _tokens[tokenId] = data;\n        _memberTokens[to].push(tokenId);\n    }\n}\n",
  "sourcePath": "/Users/edi/uni/blockchain/greenonomy/truffle/contracts/Item.sol",
  "compiler": {
    "name": "solc",
    "version": "0.8.20+commit.a1b79de6.Emscripten.clang"
  },
  "schemaVersion": "3.4.16",
  "updatedAt": "2024-04-14T23:13:36.993Z",
  "networkType": "ethereum",
  "devdoc": {
    "errors": {
      "ERC721IncorrectOwner(address,uint256,address)": [
        {
          "details": "Indicates an error related to the ownership over a particular token. Used in transfers.",
          "params": {
            "owner": "Address of the current owner of a token.",
            "sender": "Address whose tokens are being transferred.",
            "tokenId": "Identifier number of a token."
          }
        }
      ],
      "ERC721InsufficientApproval(address,uint256)": [
        {
          "details": "Indicates a failure with the `operator`s approval. Used in transfers.",
          "params": {
            "operator": "Address that may be allowed to operate on tokens without being their owner.",
            "tokenId": "Identifier number of a token."
          }
        }
      ],
      "ERC721InvalidApprover(address)": [
        {
          "details": "Indicates a failure with the `approver` of a token to be approved. Used in approvals.",
          "params": {
            "approver": "Address initiating an approval operation."
          }
        }
      ],
      "ERC721InvalidOperator(address)": [
        {
          "details": "Indicates a failure with the `operator` to be approved. Used in approvals.",
          "params": {
            "operator": "Address that may be allowed to operate on tokens without being their owner."
          }
        }
      ],
      "ERC721InvalidOwner(address)": [
        {
          "details": "Indicates that an address can't be an owner. For example, `address(0)` is a forbidden owner in EIP-20. Used in balance queries.",
          "params": {
            "owner": "Address of the current owner of a token."
          }
        }
      ],
      "ERC721InvalidReceiver(address)": [
        {
          "details": "Indicates a failure with the token `receiver`. Used in transfers.",
          "params": {
            "receiver": "Address to which tokens are being transferred."
          }
        }
      ],
      "ERC721InvalidSender(address)": [
        {
          "details": "Indicates a failure with the token `sender`. Used in transfers.",
          "params": {
            "sender": "Address whose tokens are being transferred."
          }
        }
      ],
      "ERC721NonexistentToken(uint256)": [
        {
          "details": "Indicates a `tokenId` whose `owner` is the zero address.",
          "params": {
            "tokenId": "Identifier number of a token."
          }
        }
      ],
      "OwnableInvalidOwner(address)": [
        {
          "details": "The owner is not a valid owner account. (eg. `address(0)`)"
        }
      ],
      "OwnableUnauthorizedAccount(address)": [
        {
          "details": "The caller account is not authorized to perform an operation."
        }
      ]
    },
    "events": {
      "Approval(address,address,uint256)": {
        "details": "Emitted when `owner` enables `approved` to manage the `tokenId` token."
      },
      "ApprovalForAll(address,address,bool)": {
        "details": "Emitted when `owner` enables or disables (`approved`) `operator` to manage all of its assets."
      },
      "Transfer(address,address,uint256)": {
        "details": "Emitted when `tokenId` token is transferred from `from` to `to`."
      }
    },
    "kind": "dev",
    "methods": {
      "approve(address,uint256)": {
        "details": "See {IERC721-approve}."
      },
      "balanceOf(address)": {
        "details": "See {IERC721-balanceOf}."
      },
      "burn(uint256)": {
        "details": "Burns `tokenId`. See {ERC721-_burn}. Requirements: - The caller must own `tokenId` or be an approved operator."
      },
      "getApproved(uint256)": {
        "details": "See {IERC721-getApproved}."
      },
      "isApprovedForAll(address,address)": {
        "details": "See {IERC721-isApprovedForAll}."
      },
      "name()": {
        "details": "See {IERC721Metadata-name}."
      },
      "owner()": {
        "details": "Returns the address of the current owner."
      },
      "ownerOf(uint256)": {
        "details": "See {IERC721-ownerOf}."
      },
      "renounceOwnership()": {
        "details": "Leaves the contract without owner. It will not be possible to call `onlyOwner` functions. Can only be called by the current owner. NOTE: Renouncing ownership will leave the contract without an owner, thereby disabling any functionality that is only available to the owner."
      },
      "safeTransferFrom(address,address,uint256)": {
        "details": "See {IERC721-safeTransferFrom}."
      },
      "safeTransferFrom(address,address,uint256,bytes)": {
        "details": "See {IERC721-safeTransferFrom}."
      },
      "setApprovalForAll(address,bool)": {
        "details": "See {IERC721-setApprovalForAll}."
      },
      "supportsInterface(bytes4)": {
        "details": "See {IERC165-supportsInterface}."
      },
      "symbol()": {
        "details": "See {IERC721Metadata-symbol}."
      },
      "tokenURI(uint256)": {
        "details": "See {IERC721Metadata-tokenURI}."
      },
      "transferFrom(address,address,uint256)": {
        "details": "See {IERC721-transferFrom}."
      },
      "transferOwnership(address)": {
        "details": "Transfers ownership of the contract to a new account (`newOwner`). Can only be called by the current owner."
      }
    },
    "version": 1
  },
  "userdoc": {
    "kind": "user",
    "methods": {},
    "version": 1
  }
}