{
  "contractName": "Item",
  "abi": [
    {
      "inputs": [
        {
          "internalType": "uint8",
          "name": "maxTransactions",
          "type": "uint8"
        },
        {
          "internalType": "uint8",
          "name": "increasePercentage",
          "type": "uint8"
        }
      ],
      "stateMutability": "nonpayable",
      "type": "constructor"
    },
    {
      "inputs": [
        {
          "internalType": "address",
          "name": "sender",
          "type": "address"
        },
        {
          "internalType": "uint256",
          "name": "tokenId",
          "type": "uint256"
        },
        {
          "internalType": "address",
          "name": "owner",
          "type": "address"
        }
      ],
      "name": "ERC721IncorrectOwner",
      "type": "error"
    },
    {
      "inputs": [
        {
          "internalType": "address",
          "name": "operator",
          "type": "address"
        },
        {
          "internalType": "uint256",
          "name": "tokenId",
          "type": "uint256"
        }
      ],
      "name": "ERC721InsufficientApproval",
      "type": "error"
    },
    {
      "inputs": [
        {
          "internalType": "address",
          "name": "approver",
          "type": "address"
        }
      ],
      "name": "ERC721InvalidApprover",
      "type": "error"
    },
    {
      "inputs": [
        {
          "internalType": "address",
          "name": "operator",
          "type": "address"
        }
      ],
      "name": "ERC721InvalidOperator",
      "type": "error"
    },
    {
      "inputs": [
        {
          "internalType": "address",
          "name": "owner",
          "type": "address"
        }
      ],
      "name": "ERC721InvalidOwner",
      "type": "error"
    },
    {
      "inputs": [
        {
          "internalType": "address",
          "name": "receiver",
          "type": "address"
        }
      ],
      "name": "ERC721InvalidReceiver",
      "type": "error"
    },
    {
      "inputs": [
        {
          "internalType": "address",
          "name": "sender",
          "type": "address"
        }
      ],
      "name": "ERC721InvalidSender",
      "type": "error"
    },
    {
      "inputs": [
        {
          "internalType": "uint256",
          "name": "tokenId",
          "type": "uint256"
        }
      ],
      "name": "ERC721NonexistentToken",
      "type": "error"
    },
    {
      "inputs": [
        {
          "internalType": "address",
          "name": "owner",
          "type": "address"
        }
      ],
      "name": "OwnableInvalidOwner",
      "type": "error"
    },
    {
      "inputs": [
        {
          "internalType": "address",
          "name": "account",
          "type": "address"
        }
      ],
      "name": "OwnableUnauthorizedAccount",
      "type": "error"
    },
    {
      "inputs": [
        {
          "internalType": "address",
          "name": "account",
          "type": "address"
        }
      ],
      "name": "OwnerUnauthorizedAccount",
      "type": "error"
    },
    {
      "anonymous": false,
      "inputs": [
        {
          "indexed": true,
          "internalType": "address",
          "name": "owner",
          "type": "address"
        },
        {
          "indexed": true,
          "internalType": "address",
          "name": "approved",
          "type": "address"
        },
        {
          "indexed": true,
          "internalType": "uint256",
          "name": "tokenId",
          "type": "uint256"
        }
      ],
      "name": "Approval",
      "type": "event"
    },
    {
      "anonymous": false,
      "inputs": [
        {
          "indexed": true,
          "internalType": "address",
          "name": "owner",
          "type": "address"
        },
        {
          "indexed": true,
          "internalType": "address",
          "name": "operator",
          "type": "address"
        },
        {
          "indexed": false,
          "internalType": "bool",
          "name": "approved",
          "type": "bool"
        }
      ],
      "name": "ApprovalForAll",
      "type": "event"
    },
    {
      "anonymous": false,
      "inputs": [
        {
          "indexed": true,
          "internalType": "uint256",
          "name": "tokenId",
          "type": "uint256"
        }
      ],
      "name": "ItemLocked",
      "type": "event"
    },
    {
      "anonymous": false,
      "inputs": [
        {
          "indexed": true,
          "internalType": "address",
          "name": "previousOwner",
          "type": "address"
        },
        {
          "indexed": true,
          "internalType": "address",
          "name": "newOwner",
          "type": "address"
        }
      ],
      "name": "OwnershipTransferred",
      "type": "event"
    },
    {
      "anonymous": false,
      "inputs": [
        {
          "indexed": true,
          "internalType": "address",
          "name": "from",
          "type": "address"
        },
        {
          "indexed": true,
          "internalType": "address",
          "name": "to",
          "type": "address"
        },
        {
          "indexed": true,
          "internalType": "uint256",
          "name": "tokenId",
          "type": "uint256"
        }
      ],
      "name": "Transfer",
      "type": "event"
    },
    {
      "anonymous": false,
      "inputs": [
        {
          "indexed": true,
          "internalType": "uint256",
          "name": "tokenId",
          "type": "uint256"
        },
        {
          "indexed": false,
          "internalType": "uint256",
          "name": "newValue",
          "type": "uint256"
        }
      ],
      "name": "ValueIncreased",
      "type": "event"
    },
    {
      "inputs": [
        {
          "internalType": "address",
          "name": "",
          "type": "address"
        },
        {
          "internalType": "uint256",
          "name": "",
          "type": "uint256"
        }
      ],
      "name": "_memberTokens",
      "outputs": [
        {
          "internalType": "uint256",
          "name": "",
          "type": "uint256"
        }
      ],
      "stateMutability": "view",
      "type": "function",
      "constant": true
    },
    {
      "inputs": [
        {
          "internalType": "uint256",
          "name": "",
          "type": "uint256"
        }
      ],
      "name": "_tokens",
      "outputs": [
        {
          "internalType": "string",
          "name": "uri",
          "type": "string"
        },
        {
          "internalType": "uint256",
          "name": "value",
          "type": "uint256"
        },
        {
          "internalType": "uint8",
          "name": "transactionsLeft",
          "type": "uint8"
        }
      ],
      "stateMutability": "view",
      "type": "function",
      "constant": true
    },
    {
      "inputs": [
        {
          "internalType": "address",
          "name": "to",
          "type": "address"
        },
        {
          "internalType": "uint256",
          "name": "tokenId",
          "type": "uint256"
        }
      ],
      "name": "approve",
      "outputs": [],
      "stateMutability": "nonpayable",
      "type": "function"
    },
    {
      "inputs": [
        {
          "internalType": "address",
          "name": "owner",
          "type": "address"
        }
      ],
      "name": "balanceOf",
      "outputs": [
        {
          "internalType": "uint256",
          "name": "",
          "type": "uint256"
        }
      ],
      "stateMutability": "view",
      "type": "function",
      "constant": true
    },
    {
      "inputs": [
        {
          "internalType": "uint256",
          "name": "tokenId",
          "type": "uint256"
        }
      ],
      "name": "burn",
      "outputs": [],
      "stateMutability": "nonpayable",
      "type": "function"
    },
    {
      "inputs": [
        {
          "internalType": "uint256",
          "name": "tokenId",
          "type": "uint256"
        }
      ],
      "name": "getApproved",
      "outputs": [
        {
          "internalType": "address",
          "name": "",
          "type": "address"
        }
      ],
      "stateMutability": "view",
      "type": "function",
      "constant": true
    },
    {
      "inputs": [
        {
          "internalType": "address",
          "name": "owner",
          "type": "address"
        },
        {
          "internalType": "address",
          "name": "operator",
          "type": "address"
        }
      ],
      "name": "isApprovedForAll",
      "outputs": [
        {
          "internalType": "bool",
          "name": "",
          "type": "bool"
        }
      ],
      "stateMutability": "view",
      "type": "function",
      "constant": true
    },
    {
      "inputs": [],
      "name": "name",
      "outputs": [
        {
          "internalType": "string",
          "name": "",
          "type": "string"
        }
      ],
      "stateMutability": "view",
      "type": "function",
      "constant": true
    },
    {
      "inputs": [],
      "name": "owner",
      "outputs": [
        {
          "internalType": "address",
          "name": "",
          "type": "address"
        }
      ],
      "stateMutability": "view",
      "type": "function",
      "constant": true
    },
    {
      "inputs": [
        {
          "internalType": "uint256",
          "name": "tokenId",
          "type": "uint256"
        }
      ],
      "name": "ownerOf",
      "outputs": [
        {
          "internalType": "address",
          "name": "",
          "type": "address"
        }
      ],
      "stateMutability": "view",
      "type": "function",
      "constant": true
    },
    {
      "inputs": [],
      "name": "renounceOwnership",
      "outputs": [],
      "stateMutability": "nonpayable",
      "type": "function"
    },
    {
      "inputs": [
        {
          "internalType": "address",
          "name": "from",
          "type": "address"
        },
        {
          "internalType": "address",
          "name": "to",
          "type": "address"
        },
        {
          "internalType": "uint256",
          "name": "tokenId",
          "type": "uint256"
        }
      ],
      "name": "safeTransferFrom",
      "outputs": [],
      "stateMutability": "nonpayable",
      "type": "function"
    },
    {
      "inputs": [
        {
          "internalType": "address",
          "name": "from",
          "type": "address"
        },
        {
          "internalType": "address",
          "name": "to",
          "type": "address"
        },
        {
          "internalType": "uint256",
          "name": "tokenId",
          "type": "uint256"
        },
        {
          "internalType": "bytes",
          "name": "data",
          "type": "bytes"
        }
      ],
      "name": "safeTransferFrom",
      "outputs": [],
      "stateMutability": "nonpayable",
      "type": "function"
    },
    {
      "inputs": [
        {
          "internalType": "address",
          "name": "operator",
          "type": "address"
        },
        {
          "internalType": "bool",
          "name": "approved",
          "type": "bool"
        }
      ],
      "name": "setApprovalForAll",
      "outputs": [],
      "stateMutability": "nonpayable",
      "type": "function"
    },
    {
      "inputs": [
        {
          "internalType": "bytes4",
          "name": "interfaceId",
          "type": "bytes4"
        }
      ],
      "name": "supportsInterface",
      "outputs": [
        {
          "internalType": "bool",
          "name": "",
          "type": "bool"
        }
      ],
      "stateMutability": "view",
      "type": "function",
      "constant": true
    },
    {
      "inputs": [],
      "name": "symbol",
      "outputs": [
        {
          "internalType": "string",
          "name": "",
          "type": "string"
        }
      ],
      "stateMutability": "view",
      "type": "function",
      "constant": true
    },
    {
      "inputs": [
        {
          "internalType": "uint256",
          "name": "tokenId",
          "type": "uint256"
        }
      ],
      "name": "tokenURI",
      "outputs": [
        {
          "internalType": "string",
          "name": "",
          "type": "string"
        }
      ],
      "stateMutability": "view",
      "type": "function",
      "constant": true
    },
    {
      "inputs": [
        {
          "internalType": "address",
          "name": "newOwner",
          "type": "address"
        }
      ],
      "name": "transferOwnership",
      "outputs": [],
      "stateMutability": "nonpayable",
      "type": "function"
    },
    {
      "inputs": [],
      "name": "getMyTokens",
      "outputs": [
        {
          "internalType": "uint256[]",
          "name": "",
          "type": "uint256[]"
        }
      ],
      "stateMutability": "view",
      "type": "function",
      "constant": true
    },
    {
      "inputs": [
        {
          "internalType": "uint256",
          "name": "tokenId",
          "type": "uint256"
        }
      ],
      "name": "getMetadata",
      "outputs": [
        {
          "components": [
            {
              "internalType": "string",
              "name": "uri",
              "type": "string"
            },
            {
              "internalType": "uint256",
              "name": "value",
              "type": "uint256"
            },
            {
              "internalType": "address[]",
              "name": "owners",
              "type": "address[]"
            },
            {
              "internalType": "uint8",
              "name": "transactionsLeft",
              "type": "uint8"
            }
          ],
          "internalType": "struct ItemMetadata",
          "name": "",
          "type": "tuple"
        }
      ],
      "stateMutability": "view",
      "type": "function",
      "constant": true
    },
    {
      "inputs": [
        {
          "internalType": "uint256",
          "name": "tokenId",
          "type": "uint256"
        }
      ],
      "name": "getValue",
      "outputs": [
        {
          "internalType": "uint256",
          "name": "",
          "type": "uint256"
        }
      ],
      "stateMutability": "view",
      "type": "function",
      "constant": true
    },
    {
      "inputs": [
        {
          "internalType": "uint256",
          "name": "tokenId",
          "type": "uint256"
        }
      ],
      "name": "hasTransactionsLeft",
      "outputs": [
        {
          "internalType": "bool",
          "name": "",
          "type": "bool"
        }
      ],
      "stateMutability": "view",
      "type": "function",
      "constant": true
    },
    {
      "inputs": [
        {
          "internalType": "address",
          "name": "from",
          "type": "address"
        },
        {
          "internalType": "address",
          "name": "to",
          "type": "address"
        },
        {
          "internalType": "uint256",
          "name": "tokenId",
          "type": "uint256"
        }
      ],
      "name": "transferFrom",
      "outputs": [],
      "stateMutability": "nonpayable",
      "type": "function"
    },
    {
      "inputs": [
        {
          "internalType": "address",
          "name": "to",
          "type": "address"
        },
        {
          "internalType": "string",
          "name": "uri",
          "type": "string"
        }
      ],
      "name": "safeMint",
      "outputs": [],
      "stateMutability": "nonpayable",
      "type": "function"
    }
  ],
  "bytecode": "0x60806040523480156200001157600080fd5b50604051620043b3380380620043b383398181016040528101906200003791906200029e565b620000476200018d60201b60201c565b6040518060400160405280600481526020017f4974656d000000000000000000000000000000000000000000000000000000008152506040518060400160405280600381526020017f49544d00000000000000000000000000000000000000000000000000000000008152508160009081620000c491906200055f565b508060019081620000d691906200055f565b505050600073ffffffffffffffffffffffffffffffffffffffff168173ffffffffffffffffffffffffffffffffffffffff16036200014e5760006040517f1e4fbdf70000000000000000000000000000000000000000000000000000000081526004016200014591906200068b565b60405180910390fd5b6200015f816200019560201b60201c565b5081600860006101000a81548160ff021916908360ff1602179055508060ff166009819055505050620006a8565b600033905090565b6000600660009054906101000a900473ffffffffffffffffffffffffffffffffffffffff16905081600660006101000a81548173ffffffffffffffffffffffffffffffffffffffff021916908373ffffffffffffffffffffffffffffffffffffffff1602179055508173ffffffffffffffffffffffffffffffffffffffff168173ffffffffffffffffffffffffffffffffffffffff167f8be0079c531659141344cd1fd0a4f28419497f9722a3daafe3b4186f6b6457e060405160405180910390a35050565b600080fd5b600060ff82169050919050565b620002788162000260565b81146200028457600080fd5b50565b60008151905062000298816200026d565b92915050565b60008060408385031215620002b857620002b76200025b565b5b6000620002c88582860162000287565b9250506020620002db8582860162000287565b9150509250929050565b600081519050919050565b7f4e487b7100000000000000000000000000000000000000000000000000000000600052604160045260246000fd5b7f4e487b7100000000000000000000000000000000000000000000000000000000600052602260045260246000fd5b600060028204905060018216806200036757607f821691505b6020821081036200037d576200037c6200031f565b5b50919050565b60008190508160005260206000209050919050565b60006020601f8301049050919050565b600082821b905092915050565b600060088302620003e77fffffffffffffffffffffffffffffffffffffffffffffffffffffffffffffffff82620003a8565b620003f38683620003a8565b95508019841693508086168417925050509392505050565b6000819050919050565b6000819050919050565b6000620004406200043a62000434846200040b565b62000415565b6200040b565b9050919050565b6000819050919050565b6200045c836200041f565b620004746200046b8262000447565b848454620003b5565b825550505050565b600090565b6200048b6200047c565b6200049881848462000451565b505050565b5b81811015620004c057620004b460008262000481565b6001810190506200049e565b5050565b601f8211156200050f57620004d98162000383565b620004e48462000398565b81016020851015620004f4578190505b6200050c620005038562000398565b8301826200049d565b50505b505050565b600082821c905092915050565b6000620005346000198460080262000514565b1980831691505092915050565b60006200054f838362000521565b9150826002028217905092915050565b6200056a82620002e5565b67ffffffffffffffff811115620005865762000585620002f0565b5b6200059282546200034e565b6200059f828285620004c4565b600060209050601f831160018114620005d75760008415620005c2578287015190505b620005ce858262000541565b8655506200063e565b601f198416620005e78662000383565b60005b828110156200061157848901518255600182019150602085019450602081019050620005ea565b868310156200063157848901516200062d601f89168262000521565b8355505b6001600288020188555050505b505050505050565b600073ffffffffffffffffffffffffffffffffffffffff82169050919050565b6000620006738262000646565b9050919050565b620006858162000666565b82525050565b6000602082019050620006a260008301846200067a565b92915050565b613cfb80620006b86000396000f3fe608060405234801561001057600080fd5b50600436106101585760003560e01c806370a08231116100c3578063b88d4fde1161007c578063b88d4fde146103eb578063c87b56dd14610407578063d204c45e14610437578063e985e9c514610453578063ed70554d14610483578063f2fde38b146104b557610158565b806370a0823114610329578063715018a6146103595780638da5cb5b1461036357806395d89b4114610381578063a22cb4651461039f578063a574cea4146103bb57610158565b80630ff4c916116101155780630ff4c9161461025757806323b872dd1461028757806342842e0e146102a357806342966c68146102bf5780635b3b136a146102db5780636352211e146102f957610158565b806301ffc9a71461015d57806306fdde031461018d578063081812fc146101ab578063095a48f6146101db578063095ea7b31461020b5780630d54ea3814610227575b600080fd5b61017760048036038101906101729190612834565b6104d1565b604051610184919061287c565b60405180910390f35b6101956105b3565b6040516101a29190612927565b60405180910390f35b6101c560048036038101906101c0919061297f565b610645565b6040516101d291906129ed565b60405180910390f35b6101f560048036038101906101f0919061297f565b610661565b604051610202919061287c565b60405180910390f35b61022560048036038101906102209190612a34565b610693565b005b610241600480360381019061023c9190612a34565b6106a9565b60405161024e9190612a83565b60405180910390f35b610271600480360381019061026c919061297f565b6106da565b60405161027e9190612a83565b60405180910390f35b6102a1600480360381019061029c9190612a9e565b6106fa565b005b6102bd60048036038101906102b89190612a9e565b610b06565b005b6102d960048036038101906102d4919061297f565b610b26565b005b6102e3610b3d565b6040516102f09190612baf565b60405180910390f35b610313600480360381019061030e919061297f565b610bd9565b60405161032091906129ed565b60405180910390f35b610343600480360381019061033e9190612bd1565b610beb565b6040516103509190612a83565b60405180910390f35b610361610ca5565b005b61036b610cb9565b60405161037891906129ed565b60405180910390f35b610389610ce3565b6040516103969190612927565b60405180910390f35b6103b960048036038101906103b49190612c2a565b610d75565b005b6103d560048036038101906103d0919061297f565b610d8b565b6040516103e29190612df8565b60405180910390f35b61040560048036038101906104009190612f4f565b610eff565b005b610421600480360381019061041c919061297f565b610f1c565b60405161042e9190612927565b60405180910390f35b610451600480360381019061044c9190613073565b610f85565b005b61046d600480360381019061046891906130cf565b611174565b60405161047a919061287c565b60405180910390f35b61049d6004803603810190610498919061297f565b611208565b6040516104ac9392919061311e565b60405180910390f35b6104cf60048036038101906104ca9190612bd1565b6112c7565b005b60007f80ac58cd000000000000000000000000000000000000000000000000000000007bffffffffffffffffffffffffffffffffffffffffffffffffffffffff1916827bffffffffffffffffffffffffffffffffffffffffffffffffffffffff1916148061059c57507f5b5e139f000000000000000000000000000000000000000000000000000000007bffffffffffffffffffffffffffffffffffffffffffffffffffffffff1916827bffffffffffffffffffffffffffffffffffffffffffffffffffffffff1916145b806105ac57506105ab8261134d565b5b9050919050565b6060600080546105c29061318b565b80601f01602080910402602001604051908101604052809291908181526020018280546105ee9061318b565b801561063b5780601f106106105761010080835404028352916020019161063b565b820191906000526020600020905b81548152906001019060200180831161061e57829003601f168201915b5050505050905090565b6000610650826113b7565b5061065a8261143f565b9050919050565b600080600b600084815260200190815260200160002060030160009054906101000a900460ff1660ff16119050919050565b6106a582826106a061147c565b611484565b5050565b600a60205281600052604060002081815481106106c557600080fd5b90600052602060002001600091509150505481565b6000600b6000838152602001908152602001600020600101549050919050565b6107048184611496565b610743576040517f08c379a000000000000000000000000000000000000000000000000000000000815260040161073a9061322e565b60405180910390fd5b61074c81610661565b61078b576040517f08c379a00000000000000000000000000000000000000000000000000000000081526004016107829061329a565b60405180910390fd5b6107958183611558565b156107d5576040517f08c379a00000000000000000000000000000000000000000000000000000000081526004016107cc9061332c565b60405180910390fd5b6000600b60008381526020019081526020016000209050600060646009548360010154610802919061337b565b61080c91906133ec565b90506000818360010154610820919061341d565b905082600201869080600181540180825580915050600190039060005260206000200160009091909190916101000a81548173ffffffffffffffffffffffffffffffffffffffff021916908373ffffffffffffffffffffffffffffffffffffffff16021790555082600301600081819054906101000a900460ff16809291906108a890613451565b91906101000a81548160ff021916908360ff16021790555050808360010181905550600a60008673ffffffffffffffffffffffffffffffffffffffff1673ffffffffffffffffffffffffffffffffffffffff16815260200190815260200160002084908060018154018082558091505060019003906000526020600020016000909190919091505573__Utils_________________________________63f7277c6f600a60008973ffffffffffffffffffffffffffffffffffffffff1673ffffffffffffffffffffffffffffffffffffffff168152602001908152602001600020866040518363ffffffff1660e01b81526004016109a7929190613597565b600060405180830381865af41580156109c4573d6000803e3d6000fd5b505050506040513d6000823e3d601f19601f820116820180604052508101906109ed91906136a4565b600a60008873ffffffffffffffffffffffffffffffffffffffff1673ffffffffffffffffffffffffffffffffffffffff1681526020019081526020016000209080519060200190610a3f929190612657565b5082600b600086815260200190815260200160002060008201816000019081610a6891906138af565b50600182015481600101556002820181600201908054610a899291906126a4565b506003820160009054906101000a900460ff168160030160006101000a81548160ff021916908360ff160217905550905050610ac686868661167f565b837fad5ea66d8ec34c236dcfcdd582ee7ed9a1c4eca55c538f1db5ab414df147a6c582604051610af69190612a83565b60405180910390a2505050505050565b610b2183838360405180602001604052806000815250610eff565b505050565b610b39600082610b3461147c565b611781565b5050565b6060600a6000610b4b61147c565b73ffffffffffffffffffffffffffffffffffffffff1673ffffffffffffffffffffffffffffffffffffffff168152602001908152602001600020805480602002602001604051908101604052809291908181526020018280548015610bcf57602002820191906000526020600020905b815481526020019060010190808311610bbb575b5050505050905090565b6000610be4826113b7565b9050919050565b60008073ffffffffffffffffffffffffffffffffffffffff168273ffffffffffffffffffffffffffffffffffffffff1603610c5e5760006040517f89c62b64000000000000000000000000000000000000000000000000000000008152600401610c5591906129ed565b60405180910390fd5b600360008373ffffffffffffffffffffffffffffffffffffffff1673ffffffffffffffffffffffffffffffffffffffff168152602001908152602001600020549050919050565b610cad61199b565b610cb76000611a22565b565b6000600660009054906101000a900473ffffffffffffffffffffffffffffffffffffffff16905090565b606060018054610cf29061318b565b80601f0160208091040260200160405190810160405280929190818152602001828054610d1e9061318b565b8015610d6b5780601f10610d4057610100808354040283529160200191610d6b565b820191906000526020600020905b815481529060010190602001808311610d4e57829003601f168201915b5050505050905090565b610d87610d8061147c565b8383611ae8565b5050565b610d936126f6565b600b6000838152602001908152602001600020604051806080016040529081600082018054610dc19061318b565b80601f0160208091040260200160405190810160405280929190818152602001828054610ded9061318b565b8015610e3a5780601f10610e0f57610100808354040283529160200191610e3a565b820191906000526020600020905b815481529060010190602001808311610e1d57829003601f168201915b505050505081526020016001820154815260200160028201805480602002602001604051908101604052809291908181526020018280548015610ed257602002820191906000526020600020905b8160009054906101000a900473ffffffffffffffffffffffffffffffffffffffff1673ffffffffffffffffffffffffffffffffffffffff1681526020019060010190808311610e88575b505050505081526020016003820160009054906101000a900460ff1660ff1660ff16815250509050919050565b610f0a8484846106fa565b610f1684848484611c57565b50505050565b6060610f27826113b7565b506000610f32611e0e565b90506000815111610f525760405180602001604052806000815250610f7d565b80610f5c84611e25565b604051602001610f6d9291906139d3565b6040516020818303038152906040525b915050919050565b610f8d61199b565b610fcb6040518060400160405280600e81526020017f4974656d3a3a736166654d696e74000000000000000000000000000000000000815250611ef3565b610fdb610fd661147c565b611f8c565b610fe482611f8c565b610fed81611ef3565b600060076000815480929190611002906139f7565b9190505590506000604051806080016040528084815260200160008152602001600067ffffffffffffffff81111561103d5761103c612e24565b5b60405190808252806020026020018201604052801561106b5781602001602082028036833780820191505090505b508152602001600860009054906101000a900460ff1660ff16815250905080600b600084815260200190815260200160002060008201518160000190816110b29190613a3f565b506020820151816001015560408201518160020190805190602001906110d9929190612721565b5060608201518160030160006101000a81548160ff021916908360ff160217905550905050600a60008573ffffffffffffffffffffffffffffffffffffffff1673ffffffffffffffffffffffffffffffffffffffff16815260200190815260200160002082908060018154018082558091505060019003906000526020600020016000909190919091505561116e8483612025565b50505050565b6000600560008473ffffffffffffffffffffffffffffffffffffffff1673ffffffffffffffffffffffffffffffffffffffff16815260200190815260200160002060008373ffffffffffffffffffffffffffffffffffffffff1673ffffffffffffffffffffffffffffffffffffffff16815260200190815260200160002060009054906101000a900460ff16905092915050565b600b60205280600052604060002060009150905080600001805461122b9061318b565b80601f01602080910402602001604051908101604052809291908181526020018280546112579061318b565b80156112a45780601f10611279576101008083540402835291602001916112a4565b820191906000526020600020905b81548152906001019060200180831161128757829003601f168201915b5050505050908060010154908060030160009054906101000a900460ff16905083565b6112cf61199b565b600073ffffffffffffffffffffffffffffffffffffffff168173ffffffffffffffffffffffffffffffffffffffff16036113415760006040517f1e4fbdf700000000000000000000000000000000000000000000000000000000815260040161133891906129ed565b60405180910390fd5b61134a81611a22565b50565b60007f01ffc9a7000000000000000000000000000000000000000000000000000000007bffffffffffffffffffffffffffffffffffffffffffffffffffffffff1916827bffffffffffffffffffffffffffffffffffffffffffffffffffffffff1916149050919050565b6000806113c383612043565b9050600073ffffffffffffffffffffffffffffffffffffffff168173ffffffffffffffffffffffffffffffffffffffff160361143657826040517f7e27328900000000000000000000000000000000000000000000000000000000815260040161142d9190612a83565b60405180910390fd5b80915050919050565b60006004600083815260200190815260200160002060009054906101000a900473ffffffffffffffffffffffffffffffffffffffff169050919050565b600033905090565b6114918383836001612080565b505050565b600073__Utils_________________________________63b7652da1600a60008573ffffffffffffffffffffffffffffffffffffffff1673ffffffffffffffffffffffffffffffffffffffff168152602001908152602001600020856040518363ffffffff1660e01b815260040161150f929190613597565b602060405180830381865af415801561152c573d6000803e3d6000fd5b505050506040513d601f19601f820116820180604052508101906115509190613b26565b905092915050565b600080600090506000600b60008681526020019081526020016000206002018054806020026020016040519081016040528092919081815260200182805480156115f757602002820191906000526020600020905b8160009054906101000a900473ffffffffffffffffffffffffffffffffffffffff1673ffffffffffffffffffffffffffffffffffffffff16815260200190600101908083116115ad575b5050505050905060005b8151811015611673578473ffffffffffffffffffffffffffffffffffffffff1682828151811061163457611633613b53565b5b602002602001015173ffffffffffffffffffffffffffffffffffffffff16036116605760019250611673565b808061166b906139f7565b915050611601565b50819250505092915050565b600073ffffffffffffffffffffffffffffffffffffffff168273ffffffffffffffffffffffffffffffffffffffff16036116f15760006040517f64a0ae920000000000000000000000000000000000000000000000000000000081526004016116e891906129ed565b60405180910390fd5b6000611705838361170061147c565b611781565b90508373ffffffffffffffffffffffffffffffffffffffff168173ffffffffffffffffffffffffffffffffffffffff161461177b578382826040517f64283d7b00000000000000000000000000000000000000000000000000000000815260040161177293929190613b82565b60405180910390fd5b50505050565b60008061178d84612043565b9050600073ffffffffffffffffffffffffffffffffffffffff168373ffffffffffffffffffffffffffffffffffffffff16146117cf576117ce818486612245565b5b600073ffffffffffffffffffffffffffffffffffffffff168173ffffffffffffffffffffffffffffffffffffffff161461186057611811600085600080612080565b6001600360008373ffffffffffffffffffffffffffffffffffffffff1673ffffffffffffffffffffffffffffffffffffffff168152602001908152602001600020600082825403925050819055505b600073ffffffffffffffffffffffffffffffffffffffff168573ffffffffffffffffffffffffffffffffffffffff16146118e3576001600360008773ffffffffffffffffffffffffffffffffffffffff1673ffffffffffffffffffffffffffffffffffffffff168152602001908152602001600020600082825401925050819055505b846002600086815260200190815260200160002060006101000a81548173ffffffffffffffffffffffffffffffffffffffff021916908373ffffffffffffffffffffffffffffffffffffffff160217905550838573ffffffffffffffffffffffffffffffffffffffff168273ffffffffffffffffffffffffffffffffffffffff167fddf252ad1be2c89b69c2b068fc378daa952ba7f163c4a11628f55a4df523b3ef60405160405180910390a4809150509392505050565b6119a361147c565b73ffffffffffffffffffffffffffffffffffffffff166119c1610cb9565b73ffffffffffffffffffffffffffffffffffffffff1614611a20576119e461147c565b6040517f118cdaa7000000000000000000000000000000000000000000000000000000008152600401611a1791906129ed565b60405180910390fd5b565b6000600660009054906101000a900473ffffffffffffffffffffffffffffffffffffffff16905081600660006101000a81548173ffffffffffffffffffffffffffffffffffffffff021916908373ffffffffffffffffffffffffffffffffffffffff1602179055508173ffffffffffffffffffffffffffffffffffffffff168173ffffffffffffffffffffffffffffffffffffffff167f8be0079c531659141344cd1fd0a4f28419497f9722a3daafe3b4186f6b6457e060405160405180910390a35050565b600073ffffffffffffffffffffffffffffffffffffffff168273ffffffffffffffffffffffffffffffffffffffff1603611b5957816040517f5b08ba18000000000000000000000000000000000000000000000000000000008152600401611b5091906129ed565b60405180910390fd5b80600560008573ffffffffffffffffffffffffffffffffffffffff1673ffffffffffffffffffffffffffffffffffffffff16815260200190815260200160002060008473ffffffffffffffffffffffffffffffffffffffff1673ffffffffffffffffffffffffffffffffffffffff16815260200190815260200160002060006101000a81548160ff0219169083151502179055508173ffffffffffffffffffffffffffffffffffffffff168373ffffffffffffffffffffffffffffffffffffffff167f17307eab39ab6107e8899845ad3d59bd9653f200f220920489ca2b5937696c3183604051611c4a919061287c565b60405180910390a3505050565b60008373ffffffffffffffffffffffffffffffffffffffff163b1115611e08578273ffffffffffffffffffffffffffffffffffffffff1663150b7a02611c9b61147c565b8685856040518563ffffffff1660e01b8152600401611cbd9493929190613c0e565b6020604051808303816000875af1925050508015611cf957506040513d601f19601f82011682018060405250810190611cf69190613c6f565b60015b611d7d573d8060008114611d29576040519150601f19603f3d011682016040523d82523d6000602084013e611d2e565b606091505b506000815103611d7557836040517f64a0ae92000000000000000000000000000000000000000000000000000000008152600401611d6c91906129ed565b60405180910390fd5b805181602001fd5b63150b7a0260e01b7bffffffffffffffffffffffffffffffffffffffffffffffffffffffff1916817bffffffffffffffffffffffffffffffffffffffffffffffffffffffff191614611e0657836040517f64a0ae92000000000000000000000000000000000000000000000000000000008152600401611dfd91906129ed565b60405180910390fd5b505b50505050565b606060405180602001604052806000815250905090565b606060006001611e3484612309565b01905060008167ffffffffffffffff811115611e5357611e52612e24565b5b6040519080825280601f01601f191660200182016040528015611e855781602001600182028036833780820191505090505b509050600082602001820190505b600115611ee8578080600190039150507f3031323334353637383961626364656600000000000000000000000000000000600a86061a8153600a8581611edc57611edb6133bd565b5b04945060008503611e93575b819350505050919050565b611f8981604051602401611f079190612927565b6040516020818303038152906040527f41304fac000000000000000000000000000000000000000000000000000000007bffffffffffffffffffffffffffffffffffffffffffffffffffffffff19166020820180517bffffffffffffffffffffffffffffffffffffffffffffffffffffffff838183161783525050505061245c565b50565b61202281604051602401611fa091906129ed565b6040516020818303038152906040527f2c2ecbc2000000000000000000000000000000000000000000000000000000007bffffffffffffffffffffffffffffffffffffffffffffffffffffffff19166020820180517bffffffffffffffffffffffffffffffffffffffffffffffffffffffff838183161783525050505061245c565b50565b61203f828260405180602001604052806000815250612481565b5050565b60006002600083815260200190815260200160002060009054906101000a900473ffffffffffffffffffffffffffffffffffffffff169050919050565b80806120b95750600073ffffffffffffffffffffffffffffffffffffffff168273ffffffffffffffffffffffffffffffffffffffff1614155b156121ed5760006120c9846113b7565b9050600073ffffffffffffffffffffffffffffffffffffffff168373ffffffffffffffffffffffffffffffffffffffff161415801561213457508273ffffffffffffffffffffffffffffffffffffffff168173ffffffffffffffffffffffffffffffffffffffff1614155b801561214757506121458184611174565b155b1561218957826040517fa9fbf51f00000000000000000000000000000000000000000000000000000000815260040161218091906129ed565b60405180910390fd5b81156121eb57838573ffffffffffffffffffffffffffffffffffffffff168273ffffffffffffffffffffffffffffffffffffffff167f8c5be1e5ebec7d5bd14f71427d1e84f3dd0314c0f7b2291e5b200ac8c7c3b92560405160405180910390a45b505b836004600085815260200190815260200160002060006101000a81548173ffffffffffffffffffffffffffffffffffffffff021916908373ffffffffffffffffffffffffffffffffffffffff16021790555050505050565b61225083838361249d565b61230457600073ffffffffffffffffffffffffffffffffffffffff168373ffffffffffffffffffffffffffffffffffffffff16036122c557806040517f7e2732890000000000000000000000000000000000000000000000000000000081526004016122bc9190612a83565b60405180910390fd5b81816040517f177e802f0000000000000000000000000000000000000000000000000000000081526004016122fb929190613c9c565b60405180910390fd5b505050565b600080600090507a184f03e93ff9f4daa797ed6e38ed64bf6a1f0100000000000000008310612367577a184f03e93ff9f4daa797ed6e38ed64bf6a1f010000000000000000838161235d5761235c6133bd565b5b0492506040810190505b6d04ee2d6d415b85acef810000000083106123a4576d04ee2d6d415b85acef8100000000838161239a576123996133bd565b5b0492506020810190505b662386f26fc1000083106123d357662386f26fc1000083816123c9576123c86133bd565b5b0492506010810190505b6305f5e10083106123fc576305f5e10083816123f2576123f16133bd565b5b0492506008810190505b6127108310612421576127108381612417576124166133bd565b5b0492506004810190505b60648310612444576064838161243a576124396133bd565b5b0492506002810190505b600a8310612453576001810190505b80915050919050565b60006a636f6e736f6c652e6c6f6790508151602083016000808383865afa5050505050565b61248b838361255e565b6124986000848484611c57565b505050565b60008073ffffffffffffffffffffffffffffffffffffffff168373ffffffffffffffffffffffffffffffffffffffff161415801561255557508273ffffffffffffffffffffffffffffffffffffffff168473ffffffffffffffffffffffffffffffffffffffff16148061251657506125158484611174565b5b8061255457508273ffffffffffffffffffffffffffffffffffffffff1661253c8361143f565b73ffffffffffffffffffffffffffffffffffffffff16145b5b90509392505050565b600073ffffffffffffffffffffffffffffffffffffffff168273ffffffffffffffffffffffffffffffffffffffff16036125d05760006040517f64a0ae920000000000000000000000000000000000000000000000000000000081526004016125c791906129ed565b60405180910390fd5b60006125de83836000611781565b9050600073ffffffffffffffffffffffffffffffffffffffff168173ffffffffffffffffffffffffffffffffffffffff16146126525760006040517f73c6ac6e00000000000000000000000000000000000000000000000000000000815260040161264991906129ed565b60405180910390fd5b505050565b828054828255906000526020600020908101928215612693579160200282015b82811115612692578251825591602001919060010190612677565b5b5090506126a091906127ab565b5090565b8280548282559060005260206000209081019282156126e55760005260206000209182015b828111156126e45782548255916001019190600101906126c9565b5b5090506126f291906127ab565b5090565b6040518060800160405280606081526020016000815260200160608152602001600060ff1681525090565b82805482825590600052602060002090810192821561279a579160200282015b828111156127995782518260006101000a81548173ffffffffffffffffffffffffffffffffffffffff021916908373ffffffffffffffffffffffffffffffffffffffff16021790555091602001919060010190612741565b5b5090506127a791906127ab565b5090565b5b808211156127c45760008160009055506001016127ac565b5090565b6000604051905090565b600080fd5b600080fd5b60007fffffffff0000000000000000000000000000000000000000000000000000000082169050919050565b612811816127dc565b811461281c57600080fd5b50565b60008135905061282e81612808565b92915050565b60006020828403121561284a576128496127d2565b5b60006128588482850161281f565b91505092915050565b60008115159050919050565b61287681612861565b82525050565b6000602082019050612891600083018461286d565b92915050565b600081519050919050565b600082825260208201905092915050565b60005b838110156128d15780820151818401526020810190506128b6565b60008484015250505050565b6000601f19601f8301169050919050565b60006128f982612897565b61290381856128a2565b93506129138185602086016128b3565b61291c816128dd565b840191505092915050565b6000602082019050818103600083015261294181846128ee565b905092915050565b6000819050919050565b61295c81612949565b811461296757600080fd5b50565b60008135905061297981612953565b92915050565b600060208284031215612995576129946127d2565b5b60006129a38482850161296a565b91505092915050565b600073ffffffffffffffffffffffffffffffffffffffff82169050919050565b60006129d7826129ac565b9050919050565b6129e7816129cc565b82525050565b6000602082019050612a0260008301846129de565b92915050565b612a11816129cc565b8114612a1c57600080fd5b50565b600081359050612a2e81612a08565b92915050565b60008060408385031215612a4b57612a4a6127d2565b5b6000612a5985828601612a1f565b9250506020612a6a8582860161296a565b9150509250929050565b612a7d81612949565b82525050565b6000602082019050612a986000830184612a74565b92915050565b600080600060608486031215612ab757612ab66127d2565b5b6000612ac586828701612a1f565b9350506020612ad686828701612a1f565b9250506040612ae78682870161296a565b9150509250925092565b600081519050919050565b600082825260208201905092915050565b6000819050602082019050919050565b612b2681612949565b82525050565b6000612b388383612b1d565b60208301905092915050565b6000602082019050919050565b6000612b5c82612af1565b612b668185612afc565b9350612b7183612b0d565b8060005b83811015612ba2578151612b898882612b2c565b9750612b9483612b44565b925050600181019050612b75565b5085935050505092915050565b60006020820190508181036000830152612bc98184612b51565b905092915050565b600060208284031215612be757612be66127d2565b5b6000612bf584828501612a1f565b91505092915050565b612c0781612861565b8114612c1257600080fd5b50565b600081359050612c2481612bfe565b92915050565b60008060408385031215612c4157612c406127d2565b5b6000612c4f85828601612a1f565b9250506020612c6085828601612c15565b9150509250929050565b600082825260208201905092915050565b6000612c8682612897565b612c908185612c6a565b9350612ca08185602086016128b3565b612ca9816128dd565b840191505092915050565b600081519050919050565b600082825260208201905092915050565b6000819050602082019050919050565b612ce9816129cc565b82525050565b6000612cfb8383612ce0565b60208301905092915050565b6000602082019050919050565b6000612d1f82612cb4565b612d298185612cbf565b9350612d3483612cd0565b8060005b83811015612d65578151612d4c8882612cef565b9750612d5783612d07565b925050600181019050612d38565b5085935050505092915050565b600060ff82169050919050565b612d8881612d72565b82525050565b60006080830160008301518482036000860152612dab8282612c7b565b9150506020830151612dc06020860182612b1d565b5060408301518482036040860152612dd88282612d14565b9150506060830151612ded6060860182612d7f565b508091505092915050565b60006020820190508181036000830152612e128184612d8e565b905092915050565b600080fd5b600080fd5b7f4e487b7100000000000000000000000000000000000000000000000000000000600052604160045260246000fd5b612e5c826128dd565b810181811067ffffffffffffffff82111715612e7b57612e7a612e24565b5b80604052505050565b6000612e8e6127c8565b9050612e9a8282612e53565b919050565b600067ffffffffffffffff821115612eba57612eb9612e24565b5b612ec3826128dd565b9050602081019050919050565b82818337600083830152505050565b6000612ef2612eed84612e9f565b612e84565b905082815260208101848484011115612f0e57612f0d612e1f565b5b612f19848285612ed0565b509392505050565b600082601f830112612f3657612f35612e1a565b5b8135612f46848260208601612edf565b91505092915050565b60008060008060808587031215612f6957612f686127d2565b5b6000612f7787828801612a1f565b9450506020612f8887828801612a1f565b9350506040612f998782880161296a565b925050606085013567ffffffffffffffff811115612fba57612fb96127d7565b5b612fc687828801612f21565b91505092959194509250565b600067ffffffffffffffff821115612fed57612fec612e24565b5b612ff6826128dd565b9050602081019050919050565b600061301661301184612fd2565b612e84565b90508281526020810184848401111561303257613031612e1f565b5b61303d848285612ed0565b509392505050565b600082601f83011261305a57613059612e1a565b5b813561306a848260208601613003565b91505092915050565b6000806040838503121561308a576130896127d2565b5b600061309885828601612a1f565b925050602083013567ffffffffffffffff8111156130b9576130b86127d7565b5b6130c585828601613045565b9150509250929050565b600080604083850312156130e6576130e56127d2565b5b60006130f485828601612a1f565b925050602061310585828601612a1f565b9150509250929050565b61311881612d72565b82525050565b6000606082019050818103600083015261313881866128ee565b90506131476020830185612a74565b613154604083018461310f565b949350505050565b7f4e487b7100000000000000000000000000000000000000000000000000000000600052602260045260246000fd5b600060028204905060018216806131a357607f821691505b6020821081036131b6576131b561315c565b5b50919050565b7f4f6e6c79206f776e6572206f72206d61726b65742063616e207472616e73666560008201527f722069742e000000000000000000000000000000000000000000000000000000602082015250565b60006132186025836128a2565b9150613223826131bc565b604082019050919050565b600060208201905081810360008301526132478161320b565b9050919050565b7f4974656d20686173206e6f207472616e73616374696f6e73206c6566742e0000600082015250565b6000613284601e836128a2565b915061328f8261324e565b602082019050919050565b600060208201905081810360008301526132b381613277565b9050919050565b7f4974656d2063616e6e6f742073656e64206261636b20746f206120707265766960008201527f6f7573206f776e65722e00000000000000000000000000000000000000000000602082015250565b6000613316602a836128a2565b9150613321826132ba565b604082019050919050565b6000602082019050818103600083015261334581613309565b9050919050565b7f4e487b7100000000000000000000000000000000000000000000000000000000600052601160045260246000fd5b600061338682612949565b915061339183612949565b925082820261339f81612949565b915082820484148315176133b6576133b561334c565b5b5092915050565b7f4e487b7100000000000000000000000000000000000000000000000000000000600052601260045260246000fd5b60006133f782612949565b915061340283612949565b925082613412576134116133bd565b5b828204905092915050565b600061342882612949565b915061343383612949565b925082820190508082111561344b5761344a61334c565b5b92915050565b600061345c82612d72565b91506000820361346f5761346e61334c565b5b600182039050919050565b600081549050919050565b600082825260208201905092915050565b60008190508160005260206000209050919050565b6134b481612949565b82525050565b60006134c683836134ab565b60208301905092915050565b60008160001c9050919050565b6000819050919050565b60006134fc6134f7836134d2565b6134df565b9050919050565b600061350f82546134e9565b9050919050565b6000600182019050919050565b600061352e8261347a565b6135388185613485565b935061354383613496565b8060005b8381101561357b5761355882613503565b61356288826134ba565b975061356d83613516565b925050600181019050613547565b5085935050505092915050565b61359181612949565b82525050565b600060408201905081810360008301526135b18185613523565b90506135c06020830184613588565b9392505050565b600067ffffffffffffffff8211156135e2576135e1612e24565b5b602082029050602081019050919050565b600080fd5b60008151905061360781612953565b92915050565b600061362061361b846135c7565b612e84565b90508083825260208201905060208402830185811115613643576136426135f3565b5b835b8181101561366c578061365888826135f8565b845260208401935050602081019050613645565b5050509392505050565b600082601f83011261368b5761368a612e1a565b5b815161369b84826020860161360d565b91505092915050565b6000602082840312156136ba576136b96127d2565b5b600082015167ffffffffffffffff8111156136d8576136d76127d7565b5b6136e484828501613676565b91505092915050565b6000815490506136fc8161318b565b9050919050565b60008190508160005260206000209050919050565b60006020601f8301049050919050565b600082821b905092915050565b6000600883026137657fffffffffffffffffffffffffffffffffffffffffffffffffffffffffffffffff82613728565b61376f8683613728565b95508019841693508086168417925050509392505050565b6000819050919050565b60006137ac6137a76137a284612949565b613787565b612949565b9050919050565b6000819050919050565b6137c683613791565b6137da6137d2826137b3565b848454613735565b825550505050565b600090565b6137ef6137e2565b6137fa8184846137bd565b505050565b5b8181101561381e576138136000826137e7565b600181019050613800565b5050565b601f8211156138635761383481613703565b61383d84613718565b8101602085101561384c578190505b61386061385885613718565b8301826137ff565b50505b505050565b600082821c905092915050565b600061388660001984600802613868565b1980831691505092915050565b600061389f8383613875565b9150826002028217905092915050565b8181036138bd575050613995565b6138c6826136ed565b67ffffffffffffffff8111156138df576138de612e24565b5b6138e9825461318b565b6138f4828285613822565b6000601f8311600181146139235760008415613911578287015490505b61391b8582613893565b86555061398e565b601f19841661393187613703565b965061393c86613703565b60005b828110156139645784890154825560018201915060018501945060208101905061393f565b86831015613981578489015461397d601f891682613875565b8355505b6001600288020188555050505b5050505050505b565b600081905092915050565b60006139ad82612897565b6139b78185613997565b93506139c78185602086016128b3565b80840191505092915050565b60006139df82856139a2565b91506139eb82846139a2565b91508190509392505050565b6000613a0282612949565b91507fffffffffffffffffffffffffffffffffffffffffffffffffffffffffffffffff8203613a3457613a3361334c565b5b600182019050919050565b613a4882612897565b67ffffffffffffffff811115613a6157613a60612e24565b5b613a6b825461318b565b613a76828285613822565b600060209050601f831160018114613aa95760008415613a97578287015190505b613aa18582613893565b865550613b09565b601f198416613ab786613703565b60005b82811015613adf57848901518255600182019150602085019450602081019050613aba565b86831015613afc5784890151613af8601f891682613875565b8355505b6001600288020188555050505b505050505050565b600081519050613b2081612bfe565b92915050565b600060208284031215613b3c57613b3b6127d2565b5b6000613b4a84828501613b11565b91505092915050565b7f4e487b7100000000000000000000000000000000000000000000000000000000600052603260045260246000fd5b6000606082019050613b9760008301866129de565b613ba46020830185612a74565b613bb160408301846129de565b949350505050565b600081519050919050565b600082825260208201905092915050565b6000613be082613bb9565b613bea8185613bc4565b9350613bfa8185602086016128b3565b613c03816128dd565b840191505092915050565b6000608082019050613c2360008301876129de565b613c3060208301866129de565b613c3d6040830185612a74565b8181036060830152613c4f8184613bd5565b905095945050505050565b600081519050613c6981612808565b92915050565b600060208284031215613c8557613c846127d2565b5b6000613c9384828501613c5a565b91505092915050565b6000604082019050613cb160008301856129de565b613cbe6020830184612a74565b939250505056fea2646970667358221220a9e4f4b46906729a91a8e6ae0aaa66b91e8bec1962c4039ad74ea436320bc4f764736f6c63430008140033",
  "immutableReferences": {},
  "source": "// SPDX-License-Identifier: MIT\npragma solidity ^0.8.20;\nimport {ERC721} from \"@openzeppelin/contracts/token/ERC721/ERC721.sol\";\nimport {Ownable} from \"@openzeppelin/contracts/access/Ownable.sol\";\nimport {ERC721Burnable} from \"@openzeppelin/contracts/token/ERC721/extensions/ERC721Burnable.sol\";\nimport {ItemMetadata, Utils } from \"./Utils.sol\";\nimport {console} from \"@ganache/console.log/console.sol\";\n\ncontract Item is ERC721, ERC721Burnable, Ownable{\n    uint256 private _nextTokenId;  \n    uint8 private _maxTransactions; \n    uint private  _increasePercentage; \n    mapping(address => uint256[]) public _memberTokens; \n    mapping(uint256 => ItemMetadata) public _tokens; \n\n    event ValueIncreased(uint256 indexed tokenId, uint256 newValue);\n    event ItemLocked(uint256 indexed tokenId);\n\n    error OwnerUnauthorizedAccount(address account);\n\n    constructor(uint8 maxTransactions,uint8 increasePercentage) ERC721(\"Item\", \"ITM\") Ownable(_msgSender()) {\n        _maxTransactions = maxTransactions;\n        _increasePercentage=increasePercentage;\n    }  \n    function getMyTokens() public view returns (uint256[] memory) {\n        return _memberTokens[_msgSender()];\n    } \n    function getMetadata(uint256 tokenId) public view returns (ItemMetadata memory) {\n        return _tokens[tokenId];\n    }\n    function getValue(uint256 tokenId) public view returns (uint256) {\n        return _tokens[tokenId].value;\n    }    \n    function hasTransactionsLeft(uint256 tokenId) public view virtual returns (bool){\n        return _tokens[tokenId].transactionsLeft > 0;\n    }\n    function transferFrom(address from, address to, uint256 tokenId) public override {\n        require(  _isTokenOwner(tokenId, from), \"Only owner or market can transfer it.\");\n        require( hasTransactionsLeft(tokenId), \"Item has no transactions left.\");\n        require( !_wasOwner(tokenId, to), \"Item cannot send back to a previous owner.\");\n        \n        ItemMetadata storage metadata =_tokens[tokenId];\n        // TODO: check math functions\n        uint256 increaseAmount = (metadata.value * _increasePercentage) / 100;\n        uint256 newValue = metadata.value + increaseAmount;\n\n        metadata.owners.push(from);\n        metadata.transactionsLeft--;\n        metadata.value = newValue; \n\n        _memberTokens[to].push(tokenId);\n        _memberTokens[from] = Utils._removeItem( _memberTokens[from], tokenId);\n\n        _tokens[tokenId]=metadata;\n\n        super.transferFrom(from, to, tokenId);\n        emit ValueIncreased(tokenId, newValue);\n    }\n    \n    function _wasOwner(uint256 tokenId, address addr) internal view virtual returns (bool) {\n        bool found = false;\n        address[] memory _owners= _tokens[tokenId].owners;\n        for (uint i = 0; i < _owners.length; i++) { \n            if(_owners[i]==addr) {\n                found =  true;\n                break;\n            }   \n        }       \n        return found;\n    }\n    function _isTokenOwner(uint256 tokenId, address addr) internal view virtual returns (bool) {\n        return Utils._itemExist(_memberTokens[addr], tokenId);       \n    }\n    function safeMint(address to, string memory uri) public  onlyOwner {\n        console.log(\"Item::safeMint\");\n        console.logAddress(_msgSender());\n        console.logAddress(to);\n        console.log(uri);\n        uint256 tokenId = _nextTokenId++;\n       ItemMetadata memory data = ItemMetadata({\n            uri:uri,\n            value:0,\n            owners: new address[](0),\n            transactionsLeft: _maxTransactions \n            });\n         _tokens[tokenId]=data;\n         _memberTokens[to].push(tokenId);\n         _safeMint(to, tokenId);\n    }      \n}\n",
  "sourcePath": "/Users/edi/uni/blockchain/greenonomy/truffle/contracts/Item.sol",
  "compiler": {
    "name": "solc",
    "version": "0.8.20+commit.a1b79de6.Emscripten.clang"
  },
  "schemaVersion": "3.4.16",
  "updatedAt": "2024-04-14T20:23:21.924Z",
  "networkType": "ethereum",
  "devdoc": {
    "errors": {
      "ERC721IncorrectOwner(address,uint256,address)": [
        {
          "details": "Indicates an error related to the ownership over a particular token. Used in transfers.",
          "params": {
            "owner": "Address of the current owner of a token.",
            "sender": "Address whose tokens are being transferred.",
            "tokenId": "Identifier number of a token."
          }
        }
      ],
      "ERC721InsufficientApproval(address,uint256)": [
        {
          "details": "Indicates a failure with the `operator`s approval. Used in transfers.",
          "params": {
            "operator": "Address that may be allowed to operate on tokens without being their owner.",
            "tokenId": "Identifier number of a token."
          }
        }
      ],
      "ERC721InvalidApprover(address)": [
        {
          "details": "Indicates a failure with the `approver` of a token to be approved. Used in approvals.",
          "params": {
            "approver": "Address initiating an approval operation."
          }
        }
      ],
      "ERC721InvalidOperator(address)": [
        {
          "details": "Indicates a failure with the `operator` to be approved. Used in approvals.",
          "params": {
            "operator": "Address that may be allowed to operate on tokens without being their owner."
          }
        }
      ],
      "ERC721InvalidOwner(address)": [
        {
          "details": "Indicates that an address can't be an owner. For example, `address(0)` is a forbidden owner in EIP-20. Used in balance queries.",
          "params": {
            "owner": "Address of the current owner of a token."
          }
        }
      ],
      "ERC721InvalidReceiver(address)": [
        {
          "details": "Indicates a failure with the token `receiver`. Used in transfers.",
          "params": {
            "receiver": "Address to which tokens are being transferred."
          }
        }
      ],
      "ERC721InvalidSender(address)": [
        {
          "details": "Indicates a failure with the token `sender`. Used in transfers.",
          "params": {
            "sender": "Address whose tokens are being transferred."
          }
        }
      ],
      "ERC721NonexistentToken(uint256)": [
        {
          "details": "Indicates a `tokenId` whose `owner` is the zero address.",
          "params": {
            "tokenId": "Identifier number of a token."
          }
        }
      ],
      "OwnableInvalidOwner(address)": [
        {
          "details": "The owner is not a valid owner account. (eg. `address(0)`)"
        }
      ],
      "OwnableUnauthorizedAccount(address)": [
        {
          "details": "The caller account is not authorized to perform an operation."
        }
      ]
    },
    "events": {
      "Approval(address,address,uint256)": {
        "details": "Emitted when `owner` enables `approved` to manage the `tokenId` token."
      },
      "ApprovalForAll(address,address,bool)": {
        "details": "Emitted when `owner` enables or disables (`approved`) `operator` to manage all of its assets."
      },
      "Transfer(address,address,uint256)": {
        "details": "Emitted when `tokenId` token is transferred from `from` to `to`."
      }
    },
    "kind": "dev",
    "methods": {
      "approve(address,uint256)": {
        "details": "See {IERC721-approve}."
      },
      "balanceOf(address)": {
        "details": "See {IERC721-balanceOf}."
      },
      "burn(uint256)": {
        "details": "Burns `tokenId`. See {ERC721-_burn}. Requirements: - The caller must own `tokenId` or be an approved operator."
      },
      "getApproved(uint256)": {
        "details": "See {IERC721-getApproved}."
      },
      "isApprovedForAll(address,address)": {
        "details": "See {IERC721-isApprovedForAll}."
      },
      "name()": {
        "details": "See {IERC721Metadata-name}."
      },
      "owner()": {
        "details": "Returns the address of the current owner."
      },
      "ownerOf(uint256)": {
        "details": "See {IERC721-ownerOf}."
      },
      "renounceOwnership()": {
        "details": "Leaves the contract without owner. It will not be possible to call `onlyOwner` functions. Can only be called by the current owner. NOTE: Renouncing ownership will leave the contract without an owner, thereby disabling any functionality that is only available to the owner."
      },
      "safeTransferFrom(address,address,uint256)": {
        "details": "See {IERC721-safeTransferFrom}."
      },
      "safeTransferFrom(address,address,uint256,bytes)": {
        "details": "See {IERC721-safeTransferFrom}."
      },
      "setApprovalForAll(address,bool)": {
        "details": "See {IERC721-setApprovalForAll}."
      },
      "supportsInterface(bytes4)": {
        "details": "See {IERC165-supportsInterface}."
      },
      "symbol()": {
        "details": "See {IERC721Metadata-symbol}."
      },
      "tokenURI(uint256)": {
        "details": "See {IERC721Metadata-tokenURI}."
      },
      "transferFrom(address,address,uint256)": {
        "details": "See {IERC721-transferFrom}."
      },
      "transferOwnership(address)": {
        "details": "Transfers ownership of the contract to a new account (`newOwner`). Can only be called by the current owner."
      }
    },
    "version": 1
  },
  "userdoc": {
    "kind": "user",
    "methods": {},
    "version": 1
  }
}