{
  "contractName": "Market",
  "abi": [
    {
      "inputs": [
        {
          "internalType": "contract Greenom",
          "name": "_coin",
          "type": "address"
        },
        {
          "internalType": "contract Item",
          "name": "_factory",
          "type": "address"
        },
        {
          "internalType": "uint8",
          "name": "_maxSlots",
          "type": "uint8"
        },
        {
          "internalType": "uint256",
          "name": "_itemInitialValue",
          "type": "uint256"
        }
      ],
      "stateMutability": "nonpayable",
      "type": "constructor"
    },
    {
      "inputs": [
        {
          "internalType": "address",
          "name": "account",
          "type": "address"
        }
      ],
      "name": "MemberUnauthorizedAccount",
      "type": "error"
    },
    {
      "inputs": [
        {
          "internalType": "address",
          "name": "owner",
          "type": "address"
        }
      ],
      "name": "OwnableInvalidOwner",
      "type": "error"
    },
    {
      "inputs": [
        {
          "internalType": "address",
          "name": "account",
          "type": "address"
        }
      ],
      "name": "OwnableUnauthorizedAccount",
      "type": "error"
    },
    {
      "anonymous": false,
      "inputs": [
        {
          "indexed": false,
          "internalType": "uint256",
          "name": "addr",
          "type": "uint256"
        }
      ],
      "name": "ItemDelisted",
      "type": "event"
    },
    {
      "anonymous": false,
      "inputs": [
        {
          "indexed": false,
          "internalType": "uint256",
          "name": "addr",
          "type": "uint256"
        }
      ],
      "name": "ItemListed",
      "type": "event"
    },
    {
      "anonymous": false,
      "inputs": [
        {
          "indexed": true,
          "internalType": "address",
          "name": "previousOwner",
          "type": "address"
        },
        {
          "indexed": true,
          "internalType": "address",
          "name": "newOwner",
          "type": "address"
        }
      ],
      "name": "OwnershipTransferred",
      "type": "event"
    },
    {
      "inputs": [
        {
          "internalType": "address",
          "name": "",
          "type": "address"
        }
      ],
      "name": "members",
      "outputs": [
        {
          "internalType": "bool",
          "name": "isActive",
          "type": "bool"
        },
        {
          "internalType": "uint8",
          "name": "slots",
          "type": "uint8"
        }
      ],
      "stateMutability": "view",
      "type": "function",
      "constant": true
    },
    {
      "inputs": [],
      "name": "owner",
      "outputs": [
        {
          "internalType": "address",
          "name": "",
          "type": "address"
        }
      ],
      "stateMutability": "view",
      "type": "function",
      "constant": true
    },
    {
      "inputs": [],
      "name": "renounceOwnership",
      "outputs": [],
      "stateMutability": "nonpayable",
      "type": "function"
    },
    {
      "inputs": [
        {
          "internalType": "address",
          "name": "newOwner",
          "type": "address"
        }
      ],
      "name": "transferOwnership",
      "outputs": [],
      "stateMutability": "nonpayable",
      "type": "function"
    },
    {
      "inputs": [],
      "name": "getGreenomAddress",
      "outputs": [
        {
          "internalType": "address",
          "name": "",
          "type": "address"
        }
      ],
      "stateMutability": "view",
      "type": "function",
      "constant": true
    },
    {
      "inputs": [],
      "name": "getItemAddress",
      "outputs": [
        {
          "internalType": "address",
          "name": "",
          "type": "address"
        }
      ],
      "stateMutability": "view",
      "type": "function",
      "constant": true
    },
    {
      "inputs": [
        {
          "internalType": "address",
          "name": "addr",
          "type": "address"
        }
      ],
      "name": "invite",
      "outputs": [],
      "stateMutability": "nonpayable",
      "type": "function"
    },
    {
      "inputs": [
        {
          "internalType": "string",
          "name": "uri",
          "type": "string"
        }
      ],
      "name": "createItem",
      "outputs": [],
      "stateMutability": "payable",
      "type": "function",
      "payable": true
    },
    {
      "inputs": [
        {
          "internalType": "uint256",
          "name": "tokenId",
          "type": "uint256"
        }
      ],
      "name": "listItem",
      "outputs": [],
      "stateMutability": "nonpayable",
      "type": "function"
    },
    {
      "inputs": [
        {
          "internalType": "uint256",
          "name": "tokenId",
          "type": "uint256"
        }
      ],
      "name": "buyItem",
      "outputs": [],
      "stateMutability": "nonpayable",
      "type": "function"
    },
    {
      "inputs": [],
      "name": "listedTokens",
      "outputs": [
        {
          "internalType": "uint256[]",
          "name": "",
          "type": "uint256[]"
        }
      ],
      "stateMutability": "view",
      "type": "function",
      "constant": true
    }
  ],
  "bytecode": "0x60806040523480156200001157600080fd5b5060405162001efc38038062001efc833981810160405281019062000037919062000639565b62000047620002c660201b60201c565b600073ffffffffffffffffffffffffffffffffffffffff168173ffffffffffffffffffffffffffffffffffffffff1603620000bc5760006040517f1e4fbdf7000000000000000000000000000000000000000000000000000000008152600401620000b39190620006bc565b60405180910390fd5b620000cd81620002ce60201b60201c565b50620001146040518060400160405280601381526020017f4d61726b65743a3a636f6e7374727563746f72000000000000000000000000008152506200039260201b60201c565b6200013462000128620002c660201b60201c565b6200043560201b60201c565b62000145846200043560201b60201c565b62000156836200043560201b60201c565b81600260146101000a81548160ff021916908360ff1602179055508060038190555083600160006101000a81548173ffffffffffffffffffffffffffffffffffffffff021916908373ffffffffffffffffffffffffffffffffffffffff16021790555082600260006101000a81548173ffffffffffffffffffffffffffffffffffffffff021916908373ffffffffffffffffffffffffffffffffffffffff16021790555060006040518060400160405280600115158152602001600260149054906101000a900460ff1660ff16815250905080600460006200023d620002c660201b60201c565b73ffffffffffffffffffffffffffffffffffffffff1673ffffffffffffffffffffffffffffffffffffffff16815260200190815260200160002060008201518160000160006101000a81548160ff02191690831515021790555060208201518160000160016101000a81548160ff021916908360ff160217905550905050505050505062000797565b600033905090565b60008060009054906101000a900473ffffffffffffffffffffffffffffffffffffffff169050816000806101000a81548173ffffffffffffffffffffffffffffffffffffffff021916908373ffffffffffffffffffffffffffffffffffffffff1602179055508173ffffffffffffffffffffffffffffffffffffffff168173ffffffffffffffffffffffffffffffffffffffff167f8be0079c531659141344cd1fd0a4f28419497f9722a3daafe3b4186f6b6457e060405160405180910390a35050565b6200043281604051602401620003a9919062000773565b6040516020818303038152906040527f41304fac000000000000000000000000000000000000000000000000000000007bffffffffffffffffffffffffffffffffffffffffffffffffffffffff19166020820180517bffffffffffffffffffffffffffffffffffffffffffffffffffffffff8381831617835250505050620004d860201b60201c565b50565b620004d5816040516024016200044c9190620006bc565b6040516020818303038152906040527f2c2ecbc2000000000000000000000000000000000000000000000000000000007bffffffffffffffffffffffffffffffffffffffffffffffffffffffff19166020820180517bffffffffffffffffffffffffffffffffffffffffffffffffffffffff8381831617835250505050620004d860201b60201c565b50565b60006a636f6e736f6c652e6c6f6790508151602083016000808383865afa5050505050565b600080fd5b600073ffffffffffffffffffffffffffffffffffffffff82169050919050565b60006200052f8262000502565b9050919050565b6000620005438262000522565b9050919050565b620005558162000536565b81146200056157600080fd5b50565b60008151905062000575816200054a565b92915050565b6000620005888262000522565b9050919050565b6200059a816200057b565b8114620005a657600080fd5b50565b600081519050620005ba816200058f565b92915050565b600060ff82169050919050565b620005d881620005c0565b8114620005e457600080fd5b50565b600081519050620005f881620005cd565b92915050565b6000819050919050565b6200061381620005fe565b81146200061f57600080fd5b50565b600081519050620006338162000608565b92915050565b60008060008060808587031215620006565762000655620004fd565b5b6000620006668782880162000564565b94505060206200067987828801620005a9565b93505060406200068c87828801620005e7565b92505060606200069f8782880162000622565b91505092959194509250565b620006b68162000522565b82525050565b6000602082019050620006d36000830184620006ab565b92915050565b600081519050919050565b600082825260208201905092915050565b60005b8381101562000715578082015181840152602081019050620006f8565b60008484015250505050565b6000601f19601f8301169050919050565b60006200073f82620006d9565b6200074b8185620006e4565b93506200075d818560208601620006f5565b620007688162000721565b840191505092915050565b600060208201905081810360008301526200078f818462000732565b905092915050565b61175580620007a76000396000f3fe60806040526004361061009c5760003560e01c80634b77c468116100645780634b77c4681461017a578063715018a6146101a3578063895482a2146101ba5780638da5cb5b146101e5578063e7fb74c714610210578063f2fde38b146102395761009c565b806308ae4b0c146100a15780632ce38190146100df5780632f555284146101085780633d54eebb146101335780634a3d6bda1461014f575b600080fd5b3480156100ad57600080fd5b506100c860048036038101906100c39190610f7b565b610262565b6040516100d6929190610fdf565b60405180910390f35b3480156100eb57600080fd5b506101066004803603810190610101919061103e565b6102a0565b005b34801561011457600080fd5b5061011d61052e565b60405161012a919061107a565b60405180910390f35b61014d600480360381019061014891906110fa565b610558565b005b34801561015b57600080fd5b5061016461064a565b6040516101719190611205565b60405180910390f35b34801561018657600080fd5b506101a1600480360381019061019c9190610f7b565b6106e7565b005b3480156101af57600080fd5b506101b86107a5565b005b3480156101c657600080fd5b506101cf6107b9565b6040516101dc919061107a565b60405180910390f35b3480156101f157600080fd5b506101fa6107e3565b604051610207919061107a565b60405180910390f35b34801561021c57600080fd5b506102376004803603810190610232919061103e565b61080c565b005b34801561024557600080fd5b50610260600480360381019061025b9190610f7b565b610a30565b005b60046020528060005260406000206000915090508060000160009054906101000a900460ff16908060000160019054906101000a900460ff16905082565b6102a8610ab6565b6102b06107e3565b73ffffffffffffffffffffffffffffffffffffffff16600260009054906101000a900473ffffffffffffffffffffffffffffffffffffffff1673ffffffffffffffffffffffffffffffffffffffff16638da5cb5b6040518163ffffffff1660e01b8152600401602060405180830381865afa158015610333573d6000803e3d6000fd5b505050506040513d601f19601f82011682018060405250810190610357919061123c565b73ffffffffffffffffffffffffffffffffffffffff16146103ad576040517f08c379a00000000000000000000000000000000000000000000000000000000081526004016103a4906112ec565b60405180910390fd5b600460006103b9610bbe565b73ffffffffffffffffffffffffffffffffffffffff1673ffffffffffffffffffffffffffffffffffffffff168152602001908152602001600020600001600181819054906101000a900460ff16809291906104139061133b565b91906101000a81548160ff021916908360ff16021790555050600260009054906101000a900473ffffffffffffffffffffffffffffffffffffffff1673ffffffffffffffffffffffffffffffffffffffff166323b872dd610472610bbe565b61047a6107e3565b846040518463ffffffff1660e01b815260040161049993929190611373565b600060405180830381600087803b1580156104b357600080fd5b505af11580156104c7573d6000803e3d6000fd5b5050505060058190806001815401808255809150506001900390600052602060002001600090919091909150557f77ff2ef08febd9f3c5e2bd5b310fa7ce50bfa6627428012ffc5ff4fd2b9894638160405161052391906113aa565b60405180910390a150565b6000600260009054906101000a900473ffffffffffffffffffffffffffffffffffffffff16905090565b610560610bc6565b61059e6040518060400160405280601281526020017f4d61726b65743a3a6372656174654974656d0000000000000000000000000000815250610c67565b6105ae6105a9610bbe565b610d00565b600260009054906101000a900473ffffffffffffffffffffffffffffffffffffffff1673ffffffffffffffffffffffffffffffffffffffff1663d204c45e6105f4610bbe565b84846040518463ffffffff1660e01b815260040161061493929190611412565b600060405180830381600087803b15801561062e57600080fd5b505af1158015610642573d6000803e3d6000fd5b505050505050565b6060600260009054906101000a900473ffffffffffffffffffffffffffffffffffffffff1673ffffffffffffffffffffffffffffffffffffffff16635b3b136a6040518163ffffffff1660e01b8152600401600060405180830381865afa1580156106b9573d6000803e3d6000fd5b505050506040513d6000823e3d601f19601f820116820180604052508101906106e29190611597565b905090565b6106ef610bc6565b60006040518060400160405280600115158152602001600260149054906101000a900460ff1660ff16815250905080600460008473ffffffffffffffffffffffffffffffffffffffff1673ffffffffffffffffffffffffffffffffffffffff16815260200190815260200160002060008201518160000160006101000a81548160ff02191690831515021790555060208201518160000160016101000a81548160ff021916908360ff1602179055509050505050565b6107ad610d99565b6107b76000610e20565b565b6000600160009054906101000a900473ffffffffffffffffffffffffffffffffffffffff16905090565b60008060009054906101000a900473ffffffffffffffffffffffffffffffffffffffff16905090565b610814610bc6565b600260009054906101000a900473ffffffffffffffffffffffffffffffffffffffff1673ffffffffffffffffffffffffffffffffffffffff166323b872dd61085a6107e3565b610862610bbe565b846040518463ffffffff1660e01b815260040161088193929190611373565b600060405180830381600087803b15801561089b57600080fd5b505af11580156108af573d6000803e3d6000fd5b50505050600160009054906101000a900473ffffffffffffffffffffffffffffffffffffffff1673ffffffffffffffffffffffffffffffffffffffff1663a9059cbb6108f9610bbe565b600260009054906101000a900473ffffffffffffffffffffffffffffffffffffffff1673ffffffffffffffffffffffffffffffffffffffff16630ff4c916856040518263ffffffff1660e01b815260040161095491906113aa565b602060405180830381865afa158015610971573d6000803e3d6000fd5b505050506040513d601f19601f8201168201806040525081019061099591906115e0565b6040518363ffffffff1660e01b81526004016109b292919061160d565b6020604051808303816000875af11580156109d1573d6000803e3d6000fd5b505050506040513d601f19601f820116820180604052508101906109f59190611662565b507fa4b62d701729d2038b6683e9584f5ea4479ea94a225c6e81b838699093b9ca2081604051610a2591906113aa565b60405180910390a150565b610a38610d99565b600073ffffffffffffffffffffffffffffffffffffffff168173ffffffffffffffffffffffffffffffffffffffff1603610aaa5760006040517f1e4fbdf7000000000000000000000000000000000000000000000000000000008152600401610aa1919061107a565b60405180910390fd5b610ab381610e20565b50565b60046000610ac2610bbe565b73ffffffffffffffffffffffffffffffffffffffff1673ffffffffffffffffffffffffffffffffffffffff16815260200190815260200160002060000160009054906101000a900460ff16158015610b735750600060046000610b23610bbe565b73ffffffffffffffffffffffffffffffffffffffff1673ffffffffffffffffffffffffffffffffffffffff16815260200190815260200160002060000160019054906101000a900460ff1660ff16115b15610bbc57610b80610bbe565b6040517fd6b825c3000000000000000000000000000000000000000000000000000000008152600401610bb3919061107a565b60405180910390fd5b565b600033905090565b60046000610bd2610bbe565b73ffffffffffffffffffffffffffffffffffffffff1673ffffffffffffffffffffffffffffffffffffffff16815260200190815260200160002060000160009054906101000a900460ff16610c6557610c29610bbe565b6040517fd6b825c3000000000000000000000000000000000000000000000000000000008152600401610c5c919061107a565b60405180910390fd5b565b610cfd81604051602401610c7b91906116fd565b6040516020818303038152906040527f41304fac000000000000000000000000000000000000000000000000000000007bffffffffffffffffffffffffffffffffffffffffffffffffffffffff19166020820180517bffffffffffffffffffffffffffffffffffffffffffffffffffffffff8381831617835250505050610ee4565b50565b610d9681604051602401610d14919061107a565b6040516020818303038152906040527f2c2ecbc2000000000000000000000000000000000000000000000000000000007bffffffffffffffffffffffffffffffffffffffffffffffffffffffff19166020820180517bffffffffffffffffffffffffffffffffffffffffffffffffffffffff8381831617835250505050610ee4565b50565b610da1610bbe565b73ffffffffffffffffffffffffffffffffffffffff16610dbf6107e3565b73ffffffffffffffffffffffffffffffffffffffff1614610e1e57610de2610bbe565b6040517f118cdaa7000000000000000000000000000000000000000000000000000000008152600401610e15919061107a565b60405180910390fd5b565b60008060009054906101000a900473ffffffffffffffffffffffffffffffffffffffff169050816000806101000a81548173ffffffffffffffffffffffffffffffffffffffff021916908373ffffffffffffffffffffffffffffffffffffffff1602179055508173ffffffffffffffffffffffffffffffffffffffff168173ffffffffffffffffffffffffffffffffffffffff167f8be0079c531659141344cd1fd0a4f28419497f9722a3daafe3b4186f6b6457e060405160405180910390a35050565b60006a636f6e736f6c652e6c6f6790508151602083016000808383865afa5050505050565b6000604051905090565b600080fd5b600080fd5b600073ffffffffffffffffffffffffffffffffffffffff82169050919050565b6000610f4882610f1d565b9050919050565b610f5881610f3d565b8114610f6357600080fd5b50565b600081359050610f7581610f4f565b92915050565b600060208284031215610f9157610f90610f13565b5b6000610f9f84828501610f66565b91505092915050565b60008115159050919050565b610fbd81610fa8565b82525050565b600060ff82169050919050565b610fd981610fc3565b82525050565b6000604082019050610ff46000830185610fb4565b6110016020830184610fd0565b9392505050565b6000819050919050565b61101b81611008565b811461102657600080fd5b50565b60008135905061103881611012565b92915050565b60006020828403121561105457611053610f13565b5b600061106284828501611029565b91505092915050565b61107481610f3d565b82525050565b600060208201905061108f600083018461106b565b92915050565b600080fd5b600080fd5b600080fd5b60008083601f8401126110ba576110b9611095565b5b8235905067ffffffffffffffff8111156110d7576110d661109a565b5b6020830191508360018202830111156110f3576110f261109f565b5b9250929050565b6000806020838503121561111157611110610f13565b5b600083013567ffffffffffffffff81111561112f5761112e610f18565b5b61113b858286016110a4565b92509250509250929050565b600081519050919050565b600082825260208201905092915050565b6000819050602082019050919050565b61117c81611008565b82525050565b600061118e8383611173565b60208301905092915050565b6000602082019050919050565b60006111b282611147565b6111bc8185611152565b93506111c783611163565b8060005b838110156111f85781516111df8882611182565b97506111ea8361119a565b9250506001810190506111cb565b5085935050505092915050565b6000602082019050818103600083015261121f81846111a7565b905092915050565b60008151905061123681610f4f565b92915050565b60006020828403121561125257611251610f13565b5b600061126084828501611227565b91505092915050565b600082825260208201905092915050565b7f4974656d20776173206e6f74206372656174656420666f722074686973206d6160008201527f726b657400000000000000000000000000000000000000000000000000000000602082015250565b60006112d6602483611269565b91506112e18261127a565b604082019050919050565b60006020820190508181036000830152611305816112c9565b9050919050565b7f4e487b7100000000000000000000000000000000000000000000000000000000600052601160045260246000fd5b600061134682610fc3565b9150600082036113595761135861130c565b5b600182039050919050565b61136d81611008565b82525050565b6000606082019050611388600083018661106b565b611395602083018561106b565b6113a26040830184611364565b949350505050565b60006020820190506113bf6000830184611364565b92915050565b82818337600083830152505050565b6000601f19601f8301169050919050565b60006113f18385611269565b93506113fe8385846113c5565b611407836113d4565b840190509392505050565b6000604082019050611427600083018661106b565b818103602083015261143a8184866113e5565b9050949350505050565b7f4e487b7100000000000000000000000000000000000000000000000000000000600052604160045260246000fd5b61147c826113d4565b810181811067ffffffffffffffff8211171561149b5761149a611444565b5b80604052505050565b60006114ae610f09565b90506114ba8282611473565b919050565b600067ffffffffffffffff8211156114da576114d9611444565b5b602082029050602081019050919050565b6000815190506114fa81611012565b92915050565b600061151361150e846114bf565b6114a4565b905080838252602082019050602084028301858111156115365761153561109f565b5b835b8181101561155f578061154b88826114eb565b845260208401935050602081019050611538565b5050509392505050565b600082601f83011261157e5761157d611095565b5b815161158e848260208601611500565b91505092915050565b6000602082840312156115ad576115ac610f13565b5b600082015167ffffffffffffffff8111156115cb576115ca610f18565b5b6115d784828501611569565b91505092915050565b6000602082840312156115f6576115f5610f13565b5b6000611604848285016114eb565b91505092915050565b6000604082019050611622600083018561106b565b61162f6020830184611364565b9392505050565b61163f81610fa8565b811461164a57600080fd5b50565b60008151905061165c81611636565b92915050565b60006020828403121561167857611677610f13565b5b60006116868482850161164d565b91505092915050565b600081519050919050565b60005b838110156116b857808201518184015260208101905061169d565b60008484015250505050565b60006116cf8261168f565b6116d98185611269565b93506116e981856020860161169a565b6116f2816113d4565b840191505092915050565b6000602082019050818103600083015261171781846116c4565b90509291505056fea26469706673582212200fe6d7b1ccb08ec5d9a72cf4fa13b9a98e425f6be487487cc6cb0e472c66a84e64736f6c63430008140033",
  "immutableReferences": {},
  "source": "// SPDX-License-Identifier: MIT\npragma solidity ^0.8.20;\n\nimport {Ownable} from \"@openzeppelin/contracts/access/Ownable.sol\";\nimport {Item} from './Item.sol';\nimport {Greenom} from './Greenom.sol';\nimport {MemberMetadata} from './Utils.sol';\nimport {console} from \"@ganache/console.log/console.sol\";\n\ncontract Market is Ownable {\n    Greenom private coin;\n    Item private factory;\n    uint8 private maxSlots;\n    uint256 private itemInitialValue;\n    mapping(address => MemberMetadata) public members;   \n    uint256[] tokens;\n\n    event ItemListed(uint256 addr);\n    event ItemDelisted(uint256 addr);\n\n    error MemberUnauthorizedAccount(address account);\n\n    constructor(\n        Greenom _coin,\n        Item _factory,\n        uint8 _maxSlots, \n        uint256 _itemInitialValue) \n    Ownable(_msgSender()) {\n        console.log(\"Market::constructor\");\n        console.logAddress(_msgSender());\n        console.logAddress(address(_coin));\n        console.logAddress(address(_factory));\n        maxSlots = _maxSlots;\n        itemInitialValue = _itemInitialValue;       \n        coin= _coin;\n        factory=_factory;\n        MemberMetadata memory _member = MemberMetadata({\n            isActive:true, \n            slots: maxSlots\n            });       \n        members[_msgSender()]=_member;\n    }\n    function getGreenomAddress() public view virtual returns (address ) {\n        return address(coin);\n    }\n    function getItemAddress() public view virtual returns (address ) {\n        return address(factory);\n    }       \n    function invite(address addr) external onlyMember {  \n        // TODO: tcheck if this override an inactive/max slots called multiple times      \n        MemberMetadata memory member = MemberMetadata({\n            isActive:true, \n            slots: maxSlots\n            });       \n        members[addr]=member;\n    }   \n    function createItem(string calldata uri) external payable onlyMember { \n        console.log(\"Market::createItem\");\n        console.logAddress(_msgSender());\n       Item(factory).safeMint(_msgSender(), uri); \n    } \n         \n    function listItem(uint256 tokenId) external onlyMemberWithSlots(){\n      require( Item(factory).owner()==owner(), \"Item was not created for this market\"); \n      members[_msgSender()].slots--;\n      Item(factory).transferFrom(_msgSender(), owner(), tokenId);\n      tokens.push(tokenId);\n      emit ItemListed(tokenId);   \n    }\n\n    function buyItem(uint256 tokenId) external onlyMember(){\n        Item(factory).transferFrom(owner(), _msgSender(), tokenId); \n        Greenom(coin).transfer(_msgSender(), Item(factory).getValue(tokenId));    \n        emit ItemDelisted(tokenId);              \n    }\n    function listedTokens() public view returns (uint256[] memory) {\n        return Item(factory).getMyTokens();\n    } \n\n    modifier onlyMember(){\n        _checkMember();\n        _;\n    }\n    modifier onlyMemberWithSlots(){\n        _checkMemberSlots();\n        _;\n    }\n    function _checkMember() internal view virtual {\n        if (!members[_msgSender()].isActive) {\n            revert MemberUnauthorizedAccount(_msgSender());\n        }\n    }\n     function _checkMemberSlots() internal view virtual {\n        if (!members[_msgSender()].isActive && members[_msgSender()].slots>0) {\n            revert MemberUnauthorizedAccount(_msgSender());\n        }\n    }   \n}\n",
  "sourcePath": "/Users/edi/uni/blockchain/greenonomy/truffle/contracts/Market.sol",
  "compiler": {
    "name": "solc",
    "version": "0.8.20+commit.a1b79de6.Emscripten.clang"
  },
  "schemaVersion": "3.4.16",
  "updatedAt": "2024-04-14T20:23:21.934Z",
  "networkType": "ethereum",
  "devdoc": {
    "errors": {
      "OwnableInvalidOwner(address)": [
        {
          "details": "The owner is not a valid owner account. (eg. `address(0)`)"
        }
      ],
      "OwnableUnauthorizedAccount(address)": [
        {
          "details": "The caller account is not authorized to perform an operation."
        }
      ]
    },
    "kind": "dev",
    "methods": {
      "owner()": {
        "details": "Returns the address of the current owner."
      },
      "renounceOwnership()": {
        "details": "Leaves the contract without owner. It will not be possible to call `onlyOwner` functions. Can only be called by the current owner. NOTE: Renouncing ownership will leave the contract without an owner, thereby disabling any functionality that is only available to the owner."
      },
      "transferOwnership(address)": {
        "details": "Transfers ownership of the contract to a new account (`newOwner`). Can only be called by the current owner."
      }
    },
    "version": 1
  },
  "userdoc": {
    "kind": "user",
    "methods": {},
    "version": 1
  }
}